:100000000C94CF000C94F7000C94F7000C94F700BC
:100010000C94F7000C94F7000C94F7000C94F70084
:100020000C94F7000C94F7000C9498090C94070AB0
:100030000C94F7000C94F7000C94F7000C94F70064
:100040000C94F7000C94830C0C94F7000C94F700BC
:100050000C94F7000C94C20C0C94F7000C94390C1F
:100060000C94F7000C94F7000C94F7000C94F70034
:100070000C94F7000C94F7000C94F7000C94F70024
:100080000C94F7000C94F7000C94F7000C94F70014
:100090000C94F7000C94F7000C94F7000C94F70004
:1000A0000C94F7000C94F7000C94F700000000008B
:1000B000250028002B002E0031000000000200095E
:1000C0000F0000030401000C00000000000000000D
:1000D000000000000000000000080B000202020007
:1000E00000090400000102020000052400100105BF
:1000F00024010101042402060524060001070581EC
:100100000310004009040100020A00000007050274
:1001100002400000070583024000000403090412A6
:10012000010002EF02014041233680000101020379
:100130000141726475696E6F204C4C4300417264DA
:1001400075696E6F204C656F6E6172646F000000A0
:100150000000240027002A002D00300004080201BE
:100160001040804010204080408008020401804000
:1001700020100201108010204040200404040404D8
:10018000030405020202020403020202020606063A
:10019000060606040402020204041D0D851811243B
:1001A0001FBECFEFDAE0DEBFCDBF23E0A2E0B2E0BA
:1001B00001C01D92A431B207E1F712E0A0E0B1E066
:1001C000ECE0FAE302C005900D92A230B107D9F736
:1001D00010E0CEECD0E004C02197FE010E94DE1AB0
:1001E000CD3CD107C9F70E944A0D0C94F91C0C9420
:1001F00000008CBD9DBD0895FC018091A202882362
:1002000011F13FB7F89482E08093E9002091F20069
:10021000822F90E01816190614F481E090E08823EC
:1002200039F0289844E64093A1024091F1004083C0
:10023000222339F02091F200211103C02BE62093F4
:10024000E8003FBF08958FEF9FEF08952FB7F89410
:1002500083E08093E9009091E800892F807295FFF8
:1002600004C09091F20080E4891B2FBF0895809113
:10027000900281110DC082E080938C0284E0809313
:100280008D0210928F0210928E0281E08093900274
:100290008CE892E008950895409110025091110267
:1002A00020910E0230910F0242175307B4F490913F
:1002B000E8009570E1F39091E80092FD19C08093F9
:1002C000F100809110029091110201968F7399278D
:1002D000892B19F48EEF8093E800809110029091A1
:1002E00011020196909311028093100281E008950B
:1002F00080E00895EF92FF920F931F93CF93DF93C7
:10030000F82E192FE62E042F81E0860F880F0E9409
:100310004C0183E00E944C01CF2DD12FEC0EFD2E1D
:10032000F11CCE15DF05B9F007FF13C0FE01849163
:100330000E944C01182F80E00E944C0181232196DD
:100340008111EFCFDF91CF911F910F91FF90EF902F
:1003500008958881EDCF81E0F5CFDF92EF92FF9293
:100360000F931F93CF93DF93D82E8A01EB017B016C
:10037000E40EF51ECE15DF0559F0D7FE12C0FE01C2
:1003800084910E944C0121968111F4CF0FEF1FEF51
:10039000C801DF91CF911F910F91FF90EF90DF90F7
:1003A00008958881EECF0F931F93CF93DF931F9211
:1003B000CDB7DEB782E0898342E450E069ED70E0BA
:1003C00080E80E94AD010E943701DC0112960D9178
:1003D0001C910115110589F0D801ED91FC91028065
:1003E000F381E02DBE016F5F7F4FC801099597FD36
:1003F00004C0F80100851185ECCF89810F90DF9151
:10040000CF911F910F910895615030F02091F1002C
:10041000FC0120830196F8CF289884E68093A102FE
:100420000895CF93DF931F92CDB7DEB76983DC01C8
:10043000ED91FC910280F381E02D41E050E0BE019E
:100440006F5F7F4F09950F90DF91CF91089583E003
:100450008093E9008091F200882319F08AE3809369
:10046000E80008950E94260190E00895CF93DF935D
:100470001F92CDB7DEB7FC018485958597FD08C036
:100480002FEF3FEF358724870F90DF91CF910895AD
:10049000CE0101960E94FC00019719F4898190E039
:1004A000F3CF8FEF9FEFF0CF0F931F93CF93DF9397
:1004B0001F92CDB7DEB78C01FC018485958597FF2F
:1004C0000BC0CE0101960E94FC00019771F4898156
:1004D00090E0F80195878487F801848595850F90D1
:1004E000DF91CF911F910F9108958FEF9FEFF1CF83
:1004F000FC018485958597FD0BC09FB7F89482E039
:100500008093E9008091F2009FBF90E001960895EA
:100510009FB7F89482E08093E9008091F2009FBF3A
:1005200090E00895282F30E0F901E654FF4F9491B0
:10053000F901E45AFE4F849125583E4FF901249168
:10054000222309F430C09923E9F091509F30D0F470
:10055000E92FF0E0E255FD4F0C94DE1ADC02E002D8
:10056000BD02D402D802C202C202C202E302E90200
:10057000ED02F102F702C202FB02909180009F7728
:1005800090938000E22FF0E0EE0FFF1FE455FF4F45
:10059000A591B4919FB7F894EC91611132C0809508
:1005A0008E238C939FBF0895909180009F7DE8CF0C
:1005B00090918000977FE4CF94B59F7794BDE2CF70
:1005C00094B59F7DFBCF909190009F779093900082
:1005D000D9CF909190009F7DF9CF90919000977F17
:1005E000F5CF9091C0009F779093C000CBCF9091B2
:1005F000C0009F7DF9CF9091C200977F9093C20079
:10060000C1CF8E2BCECFCF93DF9390E0FC01E45A85
:10061000FE4F249185589E4FFC0184918823D1F090
:1006200090E0880F991FFC01E25BFE4FA591B49109
:10063000FC01E455FF4FC591D49161110EC09FB7E5
:10064000F8948C91E22FE0958E238C932881E223FD
:10065000E8839FBFDF91CF9108958FB7F894EC9115
:10066000E22BEC938FBFF6CF3FB7F89480910A024C
:1006700090910B02A0910C02B0910D0226B5A89B9F
:1006800005C02F3F19F00196A11DB11D3FBFBA2F24
:10069000A92F982F8827BC01CD01620F711D811DE4
:1006A000911D42E0660F771F881F991F4A95D1F769
:1006B00008958F929F92AF92BF92CF92DF92EF9266
:1006C000FF924B015C010E9434036B017C010E948C
:1006D00034036C197D098E099F09683E73408105BA
:1006E0009105A8F321E0821A9108A108B10888EECB
:1006F000C80E83E0D81EE11CF11C81149104A104F2
:10070000B10429F7FF90EF90DF90CF90BF90AF90AA
:100710009F908F9008958F929F92AF92BF92CF92A9
:10072000DF92EF92FF920F931F93CF93DF936C01B1
:100730007B018A0180910B01882309F45CC08091C0
:10074000A202882309F457C08091140280FF05C0DB
:100750008091E00082608093E000E801B12C8AEF94
:10076000A82E93E0892E2AE3922E209711F4BB2025
:10077000D9F10E94260181110AC0AA94AA20D9F1B8
:1007800061E070E080E090E00E945903EECF8C17AA
:100790001D0611F00CF08C2F9FB7F8948092E900A1
:1007A0002091E80025FD02C09FBFDFCF282F30E059
:1007B000C21BD30BF701815020F041914093F1000F
:1007C000FACFE20EF31EBB2021F09092E800B12C8C
:1007D000EBCF8091E80085FDE7CF9092E800BB2445
:1007E000B394209709F3F3CF5D9884E680931302C6
:1007F000101611063CF081E090E0F60193838283AD
:1008000010E000E0C801DF91CF911F910F91FF90A0
:10081000EF90DF90CF90BF90AF909F908F90089512
:1008200008958EBD00000DB407FEFDCF8EB508956E
:100830000F931F93CF93DF93082F162F80E591E03E
:100840000E94F900C6E0D3E060E08E810E9492022F
:1008500082E00E941104802F0E941104812F0E94C7
:10086000110461E08E81DF91CF911F910F910C9463
:100870009202FF920F931F93CF93DF93F82E062FD0
:10088000142F80E591E00E94F900C6E0D3E060E01B
:100890008E810E94920285E00E9411048F2D0E9499
:1008A0001104802F0E941104812F0E94110461E025
:1008B0008E81DF91CF911F910F91FF900C94920246
:1008C0001F93CF93DF93182F80E591E00E94F900EA
:1008D000C6E0D3E060E08E810E94920283E00E9435
:1008E0001104812F0E94110480E00E941104182F2E
:1008F00061E08E810E949202812FDF91CF911F9142
:100900000895CF93C82F482F60EE8FE00E943904DE
:100910008FE00E946004982F907E81E09C1301C0BC
:1009200080E0CF9108951F93CF93DF9380E591E00E
:100930000E94F900C6E0D3E060E08E810E9492023E
:1009400080EA0E94110480E00E941104182F61E0E7
:100950008E810E949202812FDF91CF911F91089585
:100960004F925F926F927F928F929F92AF92BF92BF
:10097000CF92DF92EF92FF920F931F93CF93DF936B
:1009800000D000D0CDB7DEB72B013C016A01409208
:100990000703509208036092090370920A031092B1
:1009A000060310920B03F12CE12C43E0A42EB12C92
:1009B00053E2852E912C0E94930484758435C9F1ED
:1009C00090910F03B501691B710990E0292F30E068
:1009D0002617370774F54FEF933020F4F901EF5DD8
:1009E000FE4F4081482319F510E5933020F4F901BA
:1009F000E25EFE4F10811F5F60E0933020F4255EC1
:100A00003E4FF901608140E08CE20E94390480E0B1
:100A1000FFEFEF1AFF0A823079F482E3E816F1045F
:100A200011F496E08FC0C4010197F1F7C4CF9F5F26
:100A3000CDCF10E082E0ECCF92E3E916F10489F328
:100A400002E4113439F004E4113521F000E41133EB
:100A500009F000E0C20123E0969587952A95E1F719
:100A600089834294440C30EE43224A821C821B82CA
:100A700080E591E00E94F90060E080910C030E9403
:100A80009202802F0E941104FE0131967F015E01C7
:100A9000F5E0AF0EB11CF70181917F010E941104B6
:100AA000AE14BF04C1F788E00E941104F12CE12CC0
:100AB000F601EE0DFF1D80810E941104FFEFEF1A79
:100AC000FF0A88E0E816F10499F761E080910C03D1
:100AD0000E94920280E591E00E94F90060E080911E
:100AE0000C030E94920282E8113439F084E8113537
:100AF00021F081E8113309F080E00E94110461E0E7
:100B000080910C030E949202F12CE12C115083E29F
:100B1000C82ED12C9FEFE91AF90A812F0E94600498
:100B2000982F987083FF0AC0E2E3EE16F10411F4E7
:100B300097E008C0C6010197F1F7ECCFF2E3EF169A
:100B4000F104B1F3892F0F900F900F900F90DF9168
:100B5000CF911F910F91FF90EF90DF90CF90BF90BA
:100B6000AF909F908F907F906F905F904F9008957F
:100B70008F929F92AF92BF92CF92DF92EF92FF92AD
:100B80000F931F93CF93DF9300D000D0CDB7DEB784
:100B9000B82E8B016A01790160E080910C030E94FC
:100BA00092028B2D0E941104CE0101965C014E0130
:100BB00095E0890E911C80E00E941104F50181935B
:100BC0005F01E815F905B9F72A818981F8E08F9F5F
:100BD000C0011124422F50E065E0559547956A9574
:100BE000E1F7840F951F092E000CAA0BBB0BF8012F
:100BF00080839183A283B383F601108223FF3AC0DE
:100C0000F80180819181A281B38132E0880F991F20
:100C1000AA1FBB1F3A95D1F72370820F911DA11D0A
:100C2000B11D80839183A283B38380819181A2814E
:100C3000B381BA2FA92F982F88272B81820F911D5E
:100C4000A11DB11D80839183A283B3838081918193
:100C5000A281B381BA2FA92F982F88272C81820FC8
:100C6000911DA11DB11D80839183A283B38381E077
:100C7000F601808380E00E941104982F9F7090936A
:100C8000A00286FB882780F9F701808388E9E82E97
:100C900082E0F82E10E08091A002181750F418306E
:100CA00041F080E00E941104F70181937F011F5FF2
:100CB000F2CF61E080910C030F900F900F900F9096
:100CC000DF91CF911F910F91FF90EF90DF90CF9028
:100CD000BF90AF909F908F900C949202F8941092D6
:100CE0008000E1E8F0E0108210928500109284000C
:100CF0008FE396E0909389008093880080818860DC
:100D00008083808181608083EFE6F0E08081826073
:100D10008083789484E690E09093630280936202EB
:100D200090935F0280935E0290935B0280935A02DD
:100D30000895F89410928000E1E8F0E0108210929B
:100D40008500109284008FE79CE090938900809347
:100D50008800808188608083808181608083EFE665
:100D6000F0E0808182608083789482E390E09093C9
:100D700063028093620290935F0280935E0290937D
:100D80005B0280935A020895F89410928000E1E883
:100D9000F0E0108210928500109284008FE79EE3AD
:100DA000909389008093880080818860808380810F
:100DB00081608083EFE6F0E08081826080837894B8
:100DC0008AE090E0909363028093620290935F02C6
:100DD00080935E0290935B0280935A020895109272
:100DE000590260E085E00C94920210925D0260E08E
:100DF0008DE00C9492021092610260E089E00C9404
:100E000092021092570260E082E00C949202FC0180
:100E100001900020E9F73197AF01481B590BBC0145
:100E200083EA92E00C948B038F929F92AF92BF92D1
:100E30000F931F93CF93DF93CDB7DEB7A1970FB674
:100E4000F894DEBF0FBECDBF19A2423008F44AE0CD
:100E50008E010F5D1F4F842E912CB12CA12CA5016A
:100E600094010E94BC1AE62FB901CA01EA30F4F4D9
:100E7000E05DD801EE938D01232B242B252B79F7F0
:100E800090E080E0109719F0CD010E940707A1962D
:100E90000FB6F894DEBF0FBECDBFDF91CF911F918B
:100EA0000F91BF90AF909F908F900895E95CE1CF34
:100EB000BC01990F880B990B4AE00C941407682F1A
:100EC00070E090E080E04AE00C941407CF93DF9349
:100ED00086E391E00E940707EC0188E391E00E941D
:100EE00007078C0F9D1FDF91CF9108950C94070782
:100EF0004F925F926F927F928F929F92AF92BF922A
:100F0000CF92DF92EF92FF926B017C01AC019B01CB
:100F10000E94A31A882381F08BE391E0FF90EF9069
:100F2000DF90CF90BF90AF909F908F907F906F9009
:100F30005F904F900C94070746015701E894B7F86B
:100F40002FEF3FEF4FE75FE7C501B4010E94A31AFF
:100F500081110DC02FEF3FEF4FE75FE7C501B401EF
:100F60000E94911818161CF48FE391E0D7CF2FEF51
:100F70003FEF4FE75FE4C701B6010E949E1A1816C3
:100F80001CF483E491E0CACF2FEF3FEF4FE75FEC13
:100F9000C701B6010E94911887FDF3CF20E030E031
:100FA000A901C701B6010E949118B12CA12C87FF9D
:100FB0000AC06DE283EA92E00E9411025C01F7FA36
:100FC000F094F7F8F0942AE037ED43EA5BE3C701C9
:100FD000B6010E94031A2B013C010E946F1A6B019B
:100FE0007C010E9496189B01AC01C301B2010E94D2
:100FF000021A2B013C014AE0C701B6010E94140706
:101000007C01EA0CFB1C6EE283EA92E00E94110272
:10101000E80EF91E20E030E040E251E4C301B201E5
:101020000E94F7182B013C010E946F1A4B01B12C52
:10103000A12C4AE0C501B4010E941407E80EF91E74
:10104000C501B4010E9496189B01AC01C301B20115
:101050000E94021A20E030E040E251E40E94F718BA
:101060000E946F1A90E080E04AE00E9414078E0D03
:101070009F1DFF90EF90DF90CF90BF90AF909F901B
:101080008F907F906F905F904F900895FC018081CA
:101090009181009711F00C94801B08950F931F937A
:1010A000CF93DF938C01EB01FC018081918100974C
:1010B000E1F06881798161157105A9F04281538160
:1010C0002C813D814217530770F00E94D81C8C81FF
:1010D0009D81F801958384831D821C82DF91CF91CD
:1010E0001F910F9108950E94801B88819981F801BA
:1010F000918380838A819B81938382838C819D816C
:1011000095838483198218821B821A82E5CF0F93FC
:101110001F93CF93DF93EC0188819981009759F059
:101120002A813B812617370730F081E0DF91CF918C
:101130001F910F9108958B016F5F7F4F0E94091CD3
:10114000009759F0998388831B830A832C813D8102
:10115000232B59F7FC011082E8CF80E0E7CFEF9214
:10116000FF920F931F93CF93DF93EC017B018A01D2
:10117000BA010E94870828813981811114C0211584
:10118000310519F0C9010E94801B198218821D8245
:101190001C821B821A82CE01DF91CF911F910F9189
:1011A000FF90EF9008951D830C83B701C9010E9441
:1011B000D81CF1CFCF92DF92EF92FF920F931F9343
:1011C000CF93DF93EC016B017A014617570720F4A8
:1011D0008D2D6A01E62EF82E198218821B821A8242
:1011E0001D821C8250E040E06AE371E0CE010E9463
:1011F000AF080091040310910503C016D10640F515
:10120000E016F10608F48701E0910003F091010374
:10121000E00FF11FF08010826091000370910103D4
:101220006C0D7D1D61157105E9F0FB010190002039
:10123000E9F73197AF01461B570BCE010E94AF086B
:101240008091000390910103080F191FF801F082AB
:10125000CE01DF91CF911F910F91FF90EF90DF9022
:10126000CF90089588819981009711F00E94801B8A
:10127000198218821D821C821B821A82E1CFFC0116
:10128000118210821382128215821482FB01019056
:101290000020E9F73197AF01461B570B0C94AF08BC
:1012A0000F931F93CF93DF938C01EB010E94B5192D
:1012B0008883C80101960E94B5198983CE01DF9108
:1012C000CF911F910F910895CF93DF93EB010E946F
:1012D000B5198883CE01DF91CF910895CF93DF9325
:1012E000EB010E94B5198883CE01DF91CF9108955B
:1012F0001F93CF93DF93EC01162F0E94B519181797
:1013000039F0612FCE01DF91CF911F910C94BD195F
:10131000DF91CF911F9108951092560261E087E10D
:101320000E9492026091560280EA90E00C94780943
:101330001F920F920FB60F9211248F939F9380915B
:10134000E1009091E100937F9093E10083FF0FC053
:101350001092E90091E09093EB001092EC0092E380
:101360009093ED001092A20298E09093F00082FF1B
:1013700022C093E09093E9009091F200992319F034
:101380009AE39093E80090911302992341F0909191
:101390001302915090931302911101C05D9A9091A4
:1013A000A102992341F09091A10291509093A10242
:1013B000911101C0289A84FF18C08091E2008E7EAE
:1013C00081608093E2008091E1008F7E8093E10054
:1013D000809114028E7E8061809314029F918F9180
:1013E0000F900FBE0F901F90189580FFF7CF809140
:1013F000E2008E7E80618093E2008091E1008E7E2B
:101400008093E100809114028E7E8160E5CF1F926F
:101410000F920FB60F921124CF92DF92EF92FF92AC
:101420000F931F932F933F934F935F936F937F93EC
:101430008F939F93AF93BF93EF93FF93CF93DF93DC
:10144000CDB7DEB76C97DEBFCDBF1092E9008091BB
:10145000E80083FF25C068E0CE0145960E940402A3
:1014600082EF8093E8008D8987FF39C09091E80072
:1014700090FFFCCF982F907609F034C19E894F8958
:10148000588D2F89F88C911131C0803861F5809189
:1014900015028093F1001092F1008EEF8093E80026
:1014A0006C960FB6F894DEBF0FBECDBFDF91CF9123
:1014B000FF91EF91BF91AF919F918F917F916F912C
:1014C0005F914F913F912F911F910F91FF90EF905E
:1014D000DF90CF900F900FBE0F901F9018959EEF4A
:1014E0009093E800C7CF1092F100D5CF913059F416
:1014F0008111D3CF4130510581F6809115028D7F46
:1015000080931502CACF933049F48111C6CF413080
:10151000510519F6809115028260F2CF953041F4A1
:101520008091E80080FFFCCF20682093E300B5CFD6
:10153000963009F0A9C00B8D1C8D22E01092E900B5
:101540001092110210921002F2122EC010920F028D
:1015500010920E020E94D3011F8299E09983FA82B1
:1015600091E09E8390EA98879AEF998720911002E4
:1015700030911102275F3F4F3C832B838D83109264
:10158000E900109211021092100210930F020093C2
:101590000E0249E050E0BE016F5F7F4F80E00E9485
:1015A000AD010E94D30179CF10930F0200930E0278
:1015B0000E943701DC0112960D911C910115110555
:1015C00009F451C1D801ED91FC910480F581E02D21
:1015D000BE016B5E7F4FC8010995009709F03EC1BF
:1015E000F80100851185EACFF3E0FF120EC08F8964
:1015F000882309F440C0823061F440E860E18DE363
:1016000091E00E947A01811148CF81E28093EB0042
:1016100047CF813029F440E86BE081E391E0F1CFDE
:10162000833099F70E943701DC011296ED90FC900F
:101630008E010F5F1F4F6801E114F10479F0D701AB
:10164000ED91FC910680F781E02DB801C701099565
:10165000080F111DF701E084F184EECFD8011C9230
:10166000F60101900020E9F73197BF016C197D095F
:1016700040E0C601C6CF6BE171E0FB01449150E050
:1016800080E80E94AD0109CF973009F4BECF9830B1
:1016900021F481E08093F10000CF993009F0FDCE74
:1016A000837009F0B2CFE5E1F1E081E031E096E34B
:1016B0002191222371F08093E9003093EB00DF0148
:1016C00011972C912093EC009093ED008F5F873061
:1016D00079F78EE78093EA001092EA008F89809371
:1016E000A202DBCE8B8D9C8D1092E900109211022C
:1016F0001092100290930F0280930E02898D811137
:1017000092C08E899D89913A49F4813209F07DCF4A
:1017100047E050E064E071E080E0B3CF913209F03F
:1017200074CF833269F48F89988DB0E0A0E0809304
:10173000000190930101A0930201B0930301ADCE8B
:10174000803269F48091E80082FFFCCF67E084E09A
:1017500091E00E9404028BEF8093E8009ECE8232DB
:1017600009F09BCE8F8980930B01EEEFFFE7859107
:1017700094918B3F9C4D51F1E0E0F8E080910401A1
:1017800090910501A0910601B0910701803B944022
:10179000A105B105F1F480910B0180FD1AC0EE3F67
:1017A0008AE0F80789F587E797E79183808380913E
:1017B00060008093120288E19BE00FB6F894A89530
:1017C000809360000FBE9093600067CEEEEFFAE06A
:1017D000D5CF808191818737974709F05ECEA89554
:1017E00080916000886180936000809112028093F4
:1017F0006000EE3F2AE0F20789F08091FE0A9091A6
:10180000FF0A9183808349CE808191818737980731
:1018100051F29093FF0A8093FE0AC5CF1092FF0AFF
:101820001092FE0A3ACE0E943701DC0112960D9109
:101830001C910115110509F4E8CED801ED91FC9138
:101840000190F081E02DBE016B5E7F4FC8010995CC
:10185000811123CEF80100851185EBCF18161906EA
:101860000CF41BCED2CEF1E0FF12BECE6FE171E0E0
:1018700004CF1F920F920FB60F9211242F933F9314
:101880008F939F93AF93BF9380910602909107022D
:10189000A0910802B09109023091050223E0230FC4
:1018A0002D3758F50196A11DB11D20930502809397
:1018B000060290930702A0930802B0930902809158
:1018C0000A0290910B02A0910C02B0910D020196B8
:1018D000A11DB11D80930A0290930B02A0930C02EC
:1018E000B0930D02BF91AF919F918F913F912F9136
:1018F0000F900FBE0F901F90189526E8230F0296A9
:10190000A11DB11DD2CF1F920F920FB60F921124BD
:101910008F939F93809104028F5F833650F580935D
:10192000040280917E02813039F49091040280910A
:101930007D02981708F52D9A80917C02813039F448
:101940009091040280917B029817C0F4479A80918D
:101950007A02813039F490910402809179029817CB
:1019600078F4469A9F918F910F900FBE0F901F9021
:10197000189510920402D5CF2D98DECF4798E7CF67
:101980004698F0CF1F920F920FB60F9211242F930B
:101990003F935F936F937F938F939F93AF93BF9387
:1019A00020910202309103022F5F3F4F30930302D8
:1019B0002093020281E08093840220FF80938302BF
:1019C000C90165E070E00E94A81A892B19F481E032
:1019D00080938202C9016AE070E00E94A81A892BF4
:1019E00019F481E080938102C90162E370E00E94F2
:1019F000A81A892B19F481E080938002C90164E65A
:101A000070E00E94A81A892B19F481E080937F026C
:101A10002135334C20F01092030210920202BF9144
:101A2000AF919F918F917F916F915F913F912F9196
:101A30000F900FBE0F901F901895E3EAF2E013820B
:101A4000128288EE93E0A0E0B0E084839583A683C1
:101A5000B78388E291E0918380838FEF9FEF958732
:101A60008487E6E0F3E0118683EF92E09087878336
:101A70006AE371E080E093E00E943F096AE371E06D
:101A80008AEF92E00E943F096AE371E084EF92E0FE
:101A90000C943F09CF93DF9300D000D000D0CDB796
:101AA000DEB7789484B5826084BD84B5816084BDDE
:101AB00085B5826085BD85B5816085BD80916E00EC
:101AC000816080936E00109281008091810082601D
:101AD000809381008091810081608093810080915A
:101AE000800081608093800080919100826080936B
:101AF000910080919100816080939100809190008D
:101B00008160809390008091C10084608093C100C7
:101B10008091C10082608093C1008091C10081608A
:101B20008093C1008091C30081608093C300809145
:101B3000C00082608093C0008091C2008160809369
:101B4000C20080917A00846080937A0080917A004C
:101B5000826080937A0080917A00816080937A001D
:101B600080917A00806880937A001092A20210928D
:101B70001502109214028091D70081608093D700E3
:101B800080EA8093D80089B5806189BD89B582607B
:101B900089BD09B400FEFDCF61E070E080E090E017
:101BA0000E9459038091D8008F7C80618093D80077
:101BB0008091E000807F8093E0008091E1008E7E44
:101BC0008093E1008DE08093E200559A209A60E0D6
:101BD00082E10E94030361E08AE00E9403036091B6
:101BE00075028AE00E94920261E086E00E9403038F
:101BF0006091740286E00E94920261E088E00E9497
:101C000003036091730288E00E94920260E084E125
:101C10000E94030361E083E10E94030360916E026E
:101C200083E10E94920261E08CE00E9403036091D4
:101C30006D028CE00E94920260E085E10E94030345
:101C400061E086E10E9403036091680286E10E94E0
:101C5000920261E084E00E9403036091670284E0E5
:101C60000E94920261E089E00E94030360E089E043
:101C70000E94920261E08DE00E94030360E08DE02B
:101C80000E94920261E085E00E94030360E085E02B
:101C90000E94920261E083E00E9403036091780257
:101CA00083E00E94920261E082E00E94030360915F
:101CB000570282E00E94920261E080E00E940303EA
:101CC00061E087E10E9403036091560281E068278A
:101CD00087E10E949202F89414BC15BC16BC8BE9F3
:101CE00087BD84B5826084BD85B5856085BD8091E2
:101CF0006E00826080936E00789465E772E085E6FE
:101D000090E00E946E0964E772E086E690E00E942F
:101D10006E0963E772E087E690E00E946E0962E771
:101D200072E088E690E00E946E0961E772E089E661
:101D300090E00E94640960E772E08AE690E00E9409
:101D40006E096BE172E084E690E00E9464096EE641
:101D500072E08FE690E00E946E096DE672E080E727
:101D600090E00E946E096CE672E081E790E00E94CC
:101D70006E096BE672E082E790E00E9464096AE611
:101D800072E083E790E00E946E096AE172E08EE6FD
:101D900090E00E94640968E672E089E790E00E94A2
:101DA0006E0967E672E08AE790E00E946E0966E6D7
:101DB00072E08BE790E00E946E0965E672E08CE7C6
:101DC00090E00E94640964E672E08DE790E00E9472
:101DD0006E0969E172E088E790E00E94640968E1B9
:101DE00072E082E890E00E94640962E672E083E8B3
:101DF00090E00E94500960E672E085E890E00E9461
:101E00006E0967E172E08CE890E00E9464096EE57B
:101E100072E08DE890E00E9450096CE572E08FE876
:101E200090E00E946E0966E172E086E990E00E940F
:101E300064096AE572E087E990E00E94500968E56C
:101E400072E089E990E00E946E0966E572E080EA3E
:101E500090E00E946E096CE071E081EA90E00E94DF
:101E600050091092750260E08AE00E94920260912F
:101E7000750285E690E00E9478091092740260E095
:101E800086E00E9492026091740286E690E00E94D1
:101E900078091092730260E088E00E9492026091DB
:101EA000730287E690E00E94780910927602109201
:101EB0006E0260E083E10E94920260916E028FE602
:101EC00090E00E94780910926D0260E08CE00E9420
:101ED000920260916D0280E790E00E947809109272
:101EE0006F021092680260E086E10E9492026091A7
:101EF000680289E790E00E9478091092670260E02A
:101F000084E00E949202609167028AE790E00E945A
:101F100078091092690210927E0210927C0210924F
:101F20007A0284EF91E090930D0180930C01ECE82C
:101F3000AE2EE1E0BE2EFDE6EF2EF1E0FF2EDFB685
:101F4000F89480911C02811125C0F5018491F7015C
:101F50009491E82FF0E0EE0FFF1FE25BFE4FA5919A
:101F6000B4918C91982321F461E081E10E94920266
:101F700061E081E10E9403038CB580618CBD8CB56A
:101F800080648CBD61E08FE00E94030361E080E12A
:101F90000E94030380911C028F5F80931C02DFBEAE
:101FA00080E591E00E94F90060E080910C030E94BE
:101FB000920280EC0E94110461E080910C030E9467
:101FC00092026AE070E080E090E00E94590380E8AD
:101FD0000E948104882369F06AE070E080E090E06C
:101FE0000E94590364E670E080E090E00E9459038B
:101FF000A6CF6AE070E080E090E00E94590360E0C4
:102000008AE20E94180460EF89E20E94180466E8E0
:1020100088E20E9418046AE070E080E090E00E948C
:10202000590310E360E0812F0E94180460E080E112
:10203000810F0E94180460E080E2810F0E94180462
:102040001F5F1E3379F760E080E60E94180460E0AD
:1020500080E70E94180463E08BE20E94180444E0C9
:1020600064E680E60E94390440E060E680E70E9472
:10207000390480E00E9481048111AECF6AE070E0F3
:1020800080E090E00E945903109298021092990209
:1020900010929A0210929B0210929C0210929D0242
:1020A00010929E0210929F020E948C098FEF9FEF68
:1020B0009093B0028093AF0250E0E52E50E0F52EF1
:1020C00001E068EFC62E6AE2D62E1FEF0E9493044D
:1020D000837009F052C08091860290918702019628
:1020E0009093870280938602809186029091870266
:1020F00021E08131E7E29E0708F420E02093850289
:1021000081369A4E20F0D0928702C092860283EAEE
:1021100092E00E947802892B09F40AC283EA92E0D5
:102120000E947802892B09F489C183EA92E00E9417
:10213000360289831A82A0900403B09005032FEF22
:10214000A21AB20AB50180E093E00E9487088823B2
:1021500029F32091000330910103809104039091B1
:102160000503BE016F5F7F4F820F931F0E94D81C33
:10217000B0920503A0920403D1CF0E949304982F3C
:102180009B7A292F30E09595959595959071837060
:10219000892BA901559547954470842B3595279532
:1021A000359527952870822B80FF44C02BE033E0C3
:1021B00046E053E067E073E080E90E94B805809153
:1021C000070390910803A0910903B0910A0380933B
:1021D000880290938902A0938A02B0938B02AC018B
:1021E000BD014153574061097109443051056105F2
:1021F000710508F05EC08133F7E09F07A105B105C6
:1022000009F06AC080919802813009F582E08093DC
:102210007E0280917E02823009F050C08091990246
:10222000882309F444C00093610261E089E00E94C0
:1022300092023FC081FF08C02BE033E046E053E04C
:1022400067E073E084E9B9CF1092A002B8CF823082
:1022500059F400937E0280916202909163020A9782
:10226000C1F20E94C406D5CF843059F400937E0297
:102270008091620290916302C29759F20E9499067E
:10228000C8CF883069F400937E02809162029091F9
:1022900063028436910509F4BCCF0E946E06B9CF63
:1022A0001092610210927D0210927E02B2CF0E94C3
:1022B000FB06109287021092860216CF8130C9F772
:1022C0000E94FB0680919902853618F480937D0266
:1022D000F0CF10927D02EDCF823327E09207A10567
:1022E000B10509F04DC080919802813089F482E0F7
:1022F00080937C0280917C02823009F0EAC6809152
:1023000099028823B9F100935D0261E08DE08FCFDF
:10231000823061F400937C0280915E0290915F02B2
:102320000A9709F4D4C60E94C406E4CF843061F44D
:1023300000937C0280915E0290915F02C29709F443
:10234000C6C60E949906D6CF883069F400937C02F5
:1023500080915E0290915F028436910509F4B7C6C0
:102360000E946E06C7CF10925D0210927B021092FF
:102370007C02C0CF0E94F5069CCF10927B0299CFC1
:10238000833337E09307A105B10509F077C6809143
:102390009802813089F482E080937A0280917A02F7
:1023A000823009F0A5C6809199028823B9F1009383
:1023B000590261E085E03BCF823061F400937A02FC
:1023C00080915A0290915B020A9709F48FC60E948D
:1023D000C406E4CF843061F400937A0280915A02FB
:1023E00090915B02C29709F481C60E949906D6CFEC
:1023F000883069F400937A0280915A0290915B02CE
:102400008436910509F472C60E946E06C7CF1092F9
:1024100059021092790210927A02C0CF0E94EF0600
:1024200048CF1092790245CF0E948C093DC60E9488
:10243000010744C61092780260E047C643E050E0CE
:1024400070E060E0CE0101960E94DA08BE016F5F85
:102450007F4F8AEF92E00E944E08CE0101960E94C3
:102460004608409104035091050364E070E0CE01FA
:1024700001960E94DA08BE016F5F7F4F84EF92E001
:102480000E944E08CE0101960E9446088091FE02ED
:102490009091FF02892B09F441C067E471E08091BB
:1024A000FA029091FB020E94CF1C892BB9F5009390
:1024B000570261E082E00E9492026BE471E0CE017B
:1024C00001960E943F098091040390910503892B96
:1024D00009F44FC0A0900003B090010369817A8194
:1024E000C5010E94DF1C009709F443C0FC01EA19F2
:1024F000FB095F01CE0101960E9446081A141B04D5
:102500006CF4B12CA12C60E0C5010E947809FFEFAA
:10251000AF1ABF0AA11424E0B206A9F70E9401076E
:1025200050E040E06AE371E080E093E00E94AF0891
:1025300080918402882309F421C38091550281117E
:102540009DC090917E0280914D0220917D0230913C
:1025500061029130A1F4222381F0816080934D02C9
:1025600080914D02826080934D0280914D028B7F5D
:1025700015C0AA24AA94BA2CBDCF8E7FEFCF92307B
:1025800009F066C0332309F463C0816080934D0273
:1025900080914D028D7F923031F7846080934D029F
:1025A00080914D02332309F455C0806880934D0219
:1025B00080914E02913009F04FC0409162025091DB
:1025C00063024A30510509F047C0816080934E0292
:1025D00040916202509163024233510509F042C0BA
:1025E00080914E02826080934E02809162029091AF
:1025F000630284369105F1F580914E0284608093E8
:102600004E0220934F0210935002109351021093E8
:10261000520210935302109354024DE452E06AE2C6
:1026200077E080E090E00E94B00480915502843011
:1026300009F0F1C190916F0280912D02913009F063
:1026400093C1816080932D0280912D028D7F91C175
:102650008E7F9CCF8F77AACF8E7F80934E02913052
:1026600009F4B6CF80914E028D7F80934E02913057
:1026700009F4BBCF80914E028B7FC1CF813009F02E
:102680007FC090917C028091450220917B02309125
:102690005D02913081F4222361F0816080934502D4
:1026A00080914502826080934502809145028B7F34
:1026B00011C08E7FF3CF923009F04EC0332309F45E
:1026C0004BC0816080934502809145028D7F92309E
:1026D00051F7846080934502809145023323F1F1E4
:1026E000806880934502809146029130C9F54091FF
:1026F0005E0250915F024A30510591F581608093EE
:10270000460240915E0250915F024233510569F5E5
:102710008091460282608093460280915E02909191
:102720005F028436910541F5809146028460809372
:1027300046022093470210934802109349021093D7
:102740004A0210934B0210934C0245E452E06BE2B4
:1027500077E080E090E067CF8E7FB4CF8F77C1CFF6
:102760008E7F80934602913061F2809146028D7F88
:1027700080934602913089F2809146028B7FD7CFB9
:10278000823009F07FC090917A0280913D022091C1
:10279000790230915902913081F4222361F08160F5
:1027A00080933D0280913D02826080933D02809142
:1027B0003D028B7F11C08E7FF3CF923009F04EC067
:1027C000332309F44BC0816080933D0280913D0228
:1027D0008D7F923051F7846080933D0280913D025D
:1027E0003323F1F1806880933D0280913E02913065
:1027F000C9F540915A0250915B024A30510591F55A
:10280000816080933E0240915A0250915B024233B4
:10281000510569F580913E02826080933E0280916D
:102820005A0290915B028436910541F580913E02F7
:10283000846080933E0220933F02109340021093E5
:1028400041021093420210934302109344024DE35D
:1028500052E06CE277E080E090E0E5CE8E7FB4CF8E
:102860008F77C1CF8E7F80933E02913061F280914D
:102870003E028D7F80933E02913089F280913E022C
:102880008B7FD7CF833009F0D0CE909176028091A4
:102890003502913039F481608093350280913502A0
:1028A0008D7F04C08E7F9230B9F7826080933502AD
:1028B00080913502209175022223D9F084608093A3
:1028C000350280913502209174022223A1F08860A4
:1028D0008093350280913502913079F42091720213
:1028E000222359F0806180933502809135028F7DDB
:1028F0000EC08B7FE4CF877FEBCF8F7E8093350236
:10290000923099F7209170028062222371F38093B4
:10291000350280913502282F2F7B309173023323AB
:10292000E1F02068209335021092360210923702AF
:102930009130B9F48091710280933802109339027A
:1029400010933A0210933B0210933C0245E352E08D
:102950006DE277E080E090E066CE8F738093350281
:10296000E3CF10923802EACF8E7F923009F06ACE20
:10297000826080932D0280912D0220916E0222238D
:10298000D9F0846080932D0280912D0220916D02F8
:102990002223A1F0886080932D0280912D02913036
:1029A00079F420916C02222359F0806180932D02EA
:1029B00080912D028F7D0EC08B7FE4CF877FEBCF80
:1029C0008F7E80932D02923099F720916A02806267
:1029D000222371F380932D0280912D028F738093B7
:1029E0002D0210922E0210922F02913031F580911B
:1029F0006B028093300210933102109332021093D5
:102A00003302109334024DE252E06EE277E080E050
:102A100090E00E94B00480915502853009F067C0B3
:102A20009091690280912502913051F481608093E8
:102A30002502809125028D7F07C010923002DBCFE6
:102A40008E7F9230A1F782608093250280912502CB
:102A5000209168022223D9F084608093250280911E
:102A60002502209167022223A1F08860809325022D
:102A700080912502913079F420916602222359F049
:102A8000806180932502809125028F7D0EC08B7F0F
:102A9000E4CF877FEBCF8F7E80932502923099F72A
:102AA000209164028062222371F380932502809139
:102AB00025028F738093250210922602109227021E
:102AC000913009F0BDC28091650280932802109375
:102AD000290210932A0210932B0210932C0245E234
:102AE00052E06FE277E080E090E00E94B004B090A6
:102AF000550236E0B31239C080911D029091560202
:102B0000992309F4A0C2816080931D0280911D0267
:102B100090915702992309F498C2826080931D0214
:102B200080911D0290917802992309F490C28460EB
:102B300080931D0280911D02877080931D02109367
:102B40001E0210931F021093200210932102109373
:102B5000220210932302109324024DE152E060E31D
:102B600077E080E090E00E94B00481E08B0D873038
:102B700008F06FC280935502109284028091830204
:102B800081111092830280918202882309F417C276
:102B900080917702811136C08EE491E00E94760721
:102BA000809176020E945F070E94660782E591E0AD
:102BB0000E9476078091750290E00E9458070E945B
:102BC000660786E591E00E9476078091740290E0A6
:102BD0000E9458070E9466078AE591E00E947607E6
:102BE0008091730290E00E9458070E9466078EE56C
:102BF00091E00E94760760E070E0CB010E947807C8
:102C00000E94660780917702813051F582E691E05B
:102C10000E94760790E080E00E9458070E946607B5
:102C200086E691E00E9476078091720290E00E9411
:102C300058070E9466078AE691E00E947607809115
:102C400071020E945F070E9466078EE691E00E9473
:102C500076078091700290E00E9458070E946607F4
:102C6000809177028230A9F582E791E00E94760791
:102C700080916F020E945F070E94660786E791E0DD
:102C80000E94760780916E0290E00E9458070E9491
:102C900066078AE791E00E94760780916D0290E0D6
:102CA0000E9458070E9466078EE791E00E9476070F
:102CB00060E070E0CB010E9478070E94660782E81E
:102CC00091E00E94760790E080E00E9458070E9401
:102CD000660780917702833001F586E891E00E94D3
:102CE000760780916C0290E00E9458070E94660768
:102CF0008AE891E00E94760780916B020E945F074C
:102D00000E9466078EE891E00E94760780916A0231
:102D100090E00E9458070E946607809177028430F5
:102D2000A9F582E991E00E947607809169020E94EC
:102D30005F070E94660786E991E00E94760780910E
:102D4000680290E00E9458070E9466078AE991E0B5
:102D50000E9476078091670290E00E9458070E94C7
:102D600066078EE991E00E94760760E070E0CB0193
:102D70000E9478070E94660782EA91E00E94760727
:102D800090E080E00E9458070E94660780917702D9
:102D9000853001F586EA91E00E947607809166020F
:102DA00090E00E9458070E9466078AEA91E00E941C
:102DB0007607809165020E945F070E9466078EEA8F
:102DC00091E00E9476078091640290E00E9458078B
:102DD0000E946607809177028630C9F582EB91E008
:102DE0000E94760780917E020E945F070E9466071C
:102DF00086EB91E00E947607609162027091630217
:102E000090E080E04AE00E9414070E9466078AEB87
:102E100091E00E94760780917D020E945F070E94E8
:102E200066078EEB91E00E9476078091610290E048
:102E30000E9458070E94660782EC91E00E94760784
:102E40008091600290E00E9458070E94660780917E
:102E500077028730C9F586EC91E00E947607809171
:102E60007C020E945F070E9466078AEC91E00E9444
:102E7000760760915E0270915F0290E080E04AE028
:102E80000E9414070E9466078EEC91E00E9476076C
:102E900080917B020E945F070E94660782ED91E0AD
:102EA0000E94760780915D0290E00E9458070E9480
:102EB000660786ED91E00E94760780915C0290E0C3
:102EC0000E9458070E946607809177028830C9F5F2
:102ED0008AED91E00E94760780917A020E945F0756
:102EE0000E9466078EED91E00E94760760915A027B
:102EF00070915B0290E080E04AE00E9414070E941B
:102F0000660782EE91E00E947607809179020E9426
:102F10005F070E94660786EE91E00E947607809127
:102F2000590290E00E9458070E9466078AEE91E0DD
:102F30000E9476078091580290E00E9458070E94F4
:102F4000660780917702893081F58EEE91E00E94CC
:102F500076078091780290E00E9458070E946607E9
:102F600082EF91E00E9476078091570290E00E94E4
:102F700058070E94660786EF91E00E9476078091CD
:102F8000560290E00E9458070E9466078AEF91E07F
:102F90000E94760760910C0170910D0190E080E035
:102FA0004AE00E9414070E946607809177028F5FB3
:102FB0008A3008F051C0809377021092820280918B
:102FC0008102811110928102809180028111109200
:102FD000800280917F02882361F18EEF91E00E9450
:102FE00076070E94660780918502882301F180910F
:102FF0007E028130A1F510927D0210927E028091B6
:103000007C02813089F510927B0210927C028091C3
:103010007A02813071F51092790210927A020E9440
:1030200001071092780260E083E00E949202109201
:103030007F02E114F10409F449C80E94000046C867
:103040001092280244CD8E7F5FCD8D7F67CD8B7F20
:103050006FCD1092550290CD10927702AECF823094
:1030600061F60E94FB06C9CF823079F60E94F50610
:10307000CCCF823091F60E94EF06CFCF84339740B9
:10308000A105B10509F015C98091980280FFCCC94E
:103090000093560260E087E10E949202609156021E
:1030A00080EA90E00E9478098091980281FFBFC970
:1030B0000093570261E082E00E94920280919802A0
:1030C00082FFB8C90093780261E083E0B0C88091C4
:1030D0007C02813009F0EDC80E94F50680919902CA
:1030E000853608F04AC980937B02E3C880917A0252
:1030F000813009F0DEC80E94EF0680919902853682
:1031000008F08FC980937902D4C884EF92E00E94BE
:1031100046088AEF92E00E94460880E093E00C9413
:1031200046080E94D31808F481E00895E89409C085
:1031300097FB3EF490958095709561957F4F8F4FEA
:103140009F4F9923A9F0F92F96E9BB279395F69500
:10315000879577956795B795F111F8CFFAF4BB0F7E
:1031600011F460FF1BC06F5F7F4F8F4F9F4F16C0E2
:10317000882311F096E911C0772321F09EE8872F6C
:10318000762F05C0662371F096E8862F70E060E028
:103190002AF09A95660F771F881FDAF7880F9695A1
:1031A000879597F90895990F0008550FAA0BE0E845
:1031B000FEEF16161706E807F907C0F012161306F9
:1031C000E407F50798F0621B730B840B950B39F439
:1031D0000A2661F0232B242B252B21F408950A269F
:1031E00009F4A140A6958FEF811D811D08950E94CD
:1031F0000A190C947B190E946D1938F00E947419F9
:1032000020F0952311F00C9464190C946A19112480
:103210000C94AF190E948C1970F3959FC1F3950F10
:1032200050E0551F629FF001729FBB27F00DB11D4A
:10323000639FAA27F00DB11DAA1F649F6627B00DDA
:10324000A11D661F829F2227B00DA11D621F739FC3
:10325000B00DA11D621F839FA00D611D221F749FD1
:103260003327A00D611D231F849F600D211D822F18
:10327000762F6A2F11249F5750409AF0F1F088233F
:103280004AF0EE0FFF1FBB1F661F771F881F91506C
:103290005040A9F79E3F510580F00C9464190C949E
:1032A000AF195F3FE4F3983ED4F386957795679521
:1032B000B795F795E7959F5FC1F7FE2B880F911D96
:1032C0009695879597F9089597F99F6780E870E03C
:1032D00060E008959FEF80EC089500240A9416168C
:1032E000170618060906089500240A9412161306F4
:1032F000140605060895092E0394000C11F4882382
:1033000052F0BB0F40F4BF2B11F460FF04C06F5F9D
:103310007F4F8F4F9F4F089557FD9058440F551F73
:1033200059F05F3F71F04795880F97FB991F61F047
:103330009F3F79F087950895121613061406551FBE
:10334000F2CF4695F1DF08C0161617061806991F2A
:10335000F1CF86957105610508940895E894BB271F
:1033600066277727CB0197F90895F999FECF92BD8B
:1033700081BDF89A992780B50895262FF999FECF37
:103380001FBA92BD81BD20BD0FB6F894FA9AF99A82
:103390000FBE019608952F923F924F925F926F92C7
:1033A0007F928F929F92AF92BF92CF92DF92EF92D5
:1033B000FF920F931F93CF93DF93CDB7DEB7CA1B56
:1033C000DB0B0FB6F894DEBF0FBECDBF09942A8881
:1033D000398848885F846E847D848C849B84AA8429
:1033E000B984C884DF80EE80FD800C811B81AA81B6
:1033F000B981CE0FD11D0FB6F894DEBF0FBECDBF81
:10340000ED0108955058BB27AA270E941A1A0C9460
:103410007B190E946D1938F00E94741920F039F45C
:103420009F3F19F426F40C946A190EF4E095E7FB1B
:103430000C946419E92F0E948C1958F3BA1762078B
:1034400073078407950720F079F4A6F50C94AE195C
:103450000EF4E0950B2EBA2FA02D0B01B9019001AF
:103460000C01CA01A0011124FF27591B99F0593FF3
:1034700050F4503E68F11A16F040A22F232F342F3B
:103480004427585FF3CF469537952795A795F04089
:103490005395C9F77EF41F16BA0B620B730B840B9E
:1034A000BAF09150A1F0FF0FBB1F661F771F881F56
:1034B000C2F70EC0BA0F621F731F841F48F48795AE
:1034C00077956795B795F7959E3F08F0B0CF9395A0
:1034D000880F08F09927EE0F9795879508950E9419
:1034E000941988F09F5798F0B92F9927B751B0F0E9
:1034F000E1F0660F771F881F991F1AF0BA95C9F778
:1035000014C0B13091F00E94AE19B1E008950C944E
:10351000AE19672F782F8827B85F39F0B93FCCF301
:10352000869577956795B395D9F73EF490958095F4
:10353000709561957F4F8F4F9F4F08950E94D318CC
:1035400008F48FEF08950E94D318880B990B089503
:10355000AA1BBB1B51E107C0AA1FBB1FA617B707B9
:1035600010F0A61BB70B881F991F5A95A9F78095D5
:103570009095BC01CD010895A1E21A2EAA1BBB1B98
:10358000FD010DC0AA1FBB1FEE1FFF1FA217B3072F
:10359000E407F50720F0A21BB30BE40BF50B661F45
:1035A000771F881F991F1A9469F760957095809509
:1035B00090959B01AC01BD01CF010895EE0FFF1F57
:1035C0000590F491E02D09940F931F93CF93DF930F
:1035D0008230910510F482E090E0E0911203F091C6
:1035E000130330E020E0B0E0A0E0309799F421151B
:1035F000310509F44AC0281B390B24303105D8F5B0
:103600008A819B816115710589F1FB019383828316
:10361000FE0111C040815181028113814817590771
:10362000E0F04817590799F4109761F012960C933F
:10363000129713961C933296CF01DF91CF911F9171
:103640000F9108950093120310931303F4CF2115E3
:10365000310551F04217530738F0A901DB019A01F7
:10366000BD01DF01F801C1CFEF01F9CF9093130342
:1036700080931203CDCFFE01E20FF31F819391934C
:103680002250310939832883D7CF209110033091FC
:103690001103232B41F4209110013091110130933B
:1036A00011032093100320910E0130910F01211579
:1036B000310541F42DB73EB74091120150911301ED
:1036C000241B350BE0911003F0911103E217F3076F
:1036D000A0F42E1B3F0B2817390778F0AC014E5F82
:1036E0005F4F2417350748F04E0F5F1F50931103AB
:1036F00040931003819391939FCFF0E0E0E09CCF43
:10370000CF93DF930097E9F0FC0132971382128286
:10371000A0911203B0911303ED0130E020E0109767
:10372000A1F420813181820F931F209110033091E9
:1037300011032817390709F061C0F0931103E093D2
:103740001003DF91CF910895EA01CE17DF07E8F566
:103750004A815B819E0141155105B1F7E901FB8367
:10376000EA8349915991C40FD51FEC17FD0761F405
:10377000808191810296840F951FE9019983888346
:10378000828193819B838A83F0E0E0E012968D91A1
:103790009C9113970097B9F52D913C911197CD010C
:1037A0000296820F931F2091100330911103281766
:1037B000390739F6309751F510921303109212031E
:1037C000B0931103A0931003BCCFD383C283408175
:1037D0005181840F951FC817D90761F44E5F5F4F61
:1037E00088819981480F591F518340838A819B8129
:1037F000938382832115310509F0B0CFF093130331
:10380000E09312039ECFFD01DC01C0CF1382128230
:10381000D7CFB0E0A0E0EFE0FCE10C94CD198C0133
:10382000009751F4CB010E94E41A8C01C801CDB776
:10383000DEB7E0E10C94E919FC01E60FF71F9C01EB
:1038400022503109E217F30708F49DC0D901CD9148
:10385000DC911197C617D70798F0C530D10530F322
:10386000CE0104978617970708F3C61BD70B22973C
:10387000C193D1936D937C93CF010E94801BD6CFCF
:103880005B01AC1ABD0A4C018C0E9D1EA091120367
:10389000B0911303512C412CF12CE12C109731F5F0
:1038A00080911003909111038815990509F05CC06F
:1038B0004616570608F058C080910E0190910F01EE
:1038C000009741F48DB79EB74091120150911301BA
:1038D000841B950BE817F90708F055C0F093110306
:1038E000E0931003F90171836083A0CF8D919C91C7
:1038F000119712966C90129713967C901397A815B7
:10390000B90559F56C0142E0C40ED11CCA14DB04A0
:1039100020F1AC014A195B09DA011296159780F083
:103920006282738251834083D9016D937C93E11449
:10393000F10471F0D7011396FC93EE93129776CFB2
:1039400022968C0F9D1FF90191838083F301EFCFA5
:10395000F0931303E093120369CF4816590608F455
:103960002C017D01D3019ACFCB010E94E41A7C0186
:10397000009749F0AE01B8010E94C61CC8010E9420
:10398000801B870153CF10E000E050CFFB01DC012A
:1039900002C001900D9241505040D8F70895FB01AC
:1039A000DC018D91019080190110D9F3990B0895D4
:1039B000FB01DC0101900D920020E1F70895FB016D
:1039C00051915523A9F0BF01DC014D9145174111DB
:1039D000E1F759F4CD010190002049F04D914015D7
:1039E0004111C9F3FB014111EFCF81E090E0019754
:1039F000089510E0CEECD0E004C0FE010E94DE1A73
:0C3A00002196CF3CD107C9F7F894FFCF06
:103A0C00FFFFFFFF00E1000000000000F4010000D8
:103A1C001403800000C180810000000408103040B5
:103A2C00500410400000000011028B0332022702E8
:103A3C007802360254023B000D0A006E616E00697A
:103A4C006E66006F766600333031003A31003130EB
:103A5C003A0031313A0031323A0031333A003134E4
:103A6C003A0031353A0031363A0031373A003138C4
:103A7C003A0032303A0032313A0032323A003233C4
:103A8C003A0032343A0032353A0032363A003237A4
:103A9C003A0033303A0033313A0033323A003333A0
:103AAC003A0033343A0033353A0033363A00333780
:103ABC003A0034303A0034313A0034323A0034337C
:103ACC003A0034343A0035303A0035313A00353268
:103ADC003A0035333A0035343A0036303A00363154
:103AEC003A0036323A0036333A0036343A00373040
:103AFC003A0037313A0037323A0037333A002A2A43
:023B0C000000B7
:00000001FF
