:100000000C94CF000C94F7000C94F7000C94F700BC
:100010000C94F7000C94F7000C94F7000C94F70084
:100020000C94F7000C94F7000C9473070C94E207FF
:100030000C94F7000C94F7000C94F7000C94F70064
:100040000C94F7000C94140A0C94F7000C94F7002D
:100050000C94F7000C94350A0C94F7000C942907C3
:100060000C94F7000C94F7000C94F7000C94F70034
:100070000C94F7000C94F7000C94F7000C94F70024
:100080000C94F7000C94F7000C94F7000C94F70014
:100090000C94F7000C94F7000C94F7000C94F70004
:1000A0000C94F7000C94F7000C94F700080B000276
:1000B0000202000009040000010202000005240001
:1000C0001001052401010104240206052406000193
:1000D0000705810310004009040100020A00000026
:1000E00007050202400000070583024000000403E8
:1000F000090412010002EF02014041233680000191
:100100000102030141726475696E6F204C4C43001B
:1001100041726475696E6F204C656F6E6172646FB9
:100120000000000000240027002A002D00300000FD
:10013000000000250028002B002E003100040404DC
:10014000040403040502020202040302020202067E
:10015000060606060604040202020404040802015C
:100160001040804010204080408008020401804000
:1001700020100201108010204040200000000200EA
:10018000090F0000030401000C0000000000000043
:1001900000000000000000000000900AB6121124C8
:1001A0001FBECFEFDAE0DEBFCDBF22E0AAEFB1E0A5
:1001B00001C01D92A13EB207E1F711E0A0E0B1E05D
:1001C000E4E3FFE202C005900D92AA3FB107D9F720
:1001D00010E0CEECD0E004C02197FE010E949515FE
:1001E000CD3CD107C9F70E94B70A0C948D170C9427
:1001F00000008CBD9DBD0895FC018091660288239E
:1002000011F13FB7F89482E08093E9002091F20069
:10021000822F90E01816190614F481E090E08823EC
:1002200039F0289844E6409365024091F1004083FC
:10023000222339F02091F200211103C02BE62093F4
:10024000E8003FBF08958FEF9FEF08952FB7F89410
:1002500083E08093E9009091E800892F807295FFF8
:1002600004C09091F20080E4891B2FBF0895809113
:100270005D0281110DC082E08093590284E0809379
:100280005A0210925C0210925B0281E080935D0240
:1002900089E592E00895282F30E0F901E558FE4FF6
:1002A0009491F901E45AFE4F8491235C3E4FF90189
:1002B0002491222309F430C09923E9F091509F3012
:1002C000D0F4E92FF0E0E959FE4F0C949515950113
:1002D000990176018D0191017B017B017B019C01DC
:1002E000A201A601AA01B0017B01B4019091800096
:1002F0009F7790938000E22FF0E0EE0FFF1FE15D0B
:10030000FE4FA591B4919FB7F894EC91611132C062
:1003100080958E238C939FBF0895909180009F7D40
:10032000E8CF90918000977FE4CF94B59F7794BDFC
:10033000E2CF94B59F7DFBCF909190009F779093F3
:100340009000D9CF909190009F7DF9CF909190002F
:10035000977FF5CF9091C0009F779093C000CBCF4F
:100360009091C0009F7DF9CF9091C200977F9093AC
:10037000C200C1CF8E2BCECFCF93DF9390E0FC0194
:10038000E45AFE4F2491835C9E4FFC0184918823A4
:10039000D1F090E0880F991FFC01EF5DFE4FA59111
:1003A000B491FC01E15DFE4FC591D49161110EC085
:1003B0009FB7F8948C91E22FE0958E238C9328813F
:1003C000E223E8839FBFDF91CF9108958FB7F89420
:1003D000EC91E22BEC938FBFF6CF3FB7F89480916E
:1003E000550290915602A0915702B091580226B53D
:1003F000A89B05C02F3F19F00196A11DB11D3FBF5D
:10040000BA2FA92F982F8827BC01CD01620F711D2B
:10041000811D911D42E0660F771F881F991F4A9525
:10042000D1F708958F929F92AF92BF92CF92DF92B1
:10043000EF92FF924B015C010E94ED016B017C0188
:100440000E94ED016C197D098E099F09683E734079
:1004500081059105A8F321E0821A9108A108B1084D
:1004600088EEC80E83E0D81EE11CF11C81149104B3
:10047000A104B10429F7FF90EF90DF90CF90BF90D7
:10048000AF909F908F9008954091FF01509100028E
:100490002091FD013091FE0142175307B4F4909171
:1004A000E8009570E1F39091E80092FD19C0809307
:1004B000F1008091FF019091000201968F739927BE
:1004C000892B19F48EEF8093E8008091FF019091C1
:1004D00000020196909300028093FF0181E008954D
:1004E00080E00895EF92FF920F931F93CF93DF93D5
:1004F000F82E192FE62E042F81E0860F880F0E9418
:10050000440283E00E944402CF2DD12FEC0EFD2E39
:10051000F11CCE15DF05B9F007FF13C0FE01849171
:100520000E944402182F80E00E94440281232196F9
:100530008111EFCFDF91CF911F910F91FF90EF903D
:1005400008958881EDCF81E0F5CFDF92EF92FF92A1
:100550000F931F93CF93DF93D82E8A01EB017B017A
:10056000E40EF51ECE15DF0559F0D7FE12C0FE01D0
:1005700084910E94440221968111F4CF0FEF1FEF66
:10058000C801DF91CF911F910F91FF90EF90DF9005
:1005900008958881EECF0F931F93CF93DF931F921F
:1005A000CDB7DEB782E0898342E450E06CEA70E0C8
:1005B00080E80E94A5020E943701DC0112960D918D
:1005C0001C910115110589F0D801ED91FC91028073
:1005D000F381E02DBE016F5F7F4FC801099597FD44
:1005E00004C0F80100851185ECCF89810F90DF915F
:1005F000CF911F910F910895615030F02091F1003B
:10060000FC0120830196F8CF289884E68093650248
:1006100008958F929F92AF92BF92CF92DF92EF9206
:10062000FF920F931F93CF93DF936C017B018A019D
:1006300080910B01882309F45CC0809166028823B5
:1006400009F457C08091030280FF05C08091E0004B
:1006500082608093E000E801B12C8AEFA82E93E03D
:10066000892E2AE3922E209711F4BB20D9F10E9403
:10067000260181110AC0AA94AA20D9F161E070E094
:1006800080E090E00E941202EECF8C171D0611F060
:100690000CF08C2F9FB7F8948092E9002091E8002D
:1006A00025FD02C09FBFDFCF282F30E0C21BD30B38
:1006B000F701815020F041914093F100FACFE20E12
:1006C000F31EBB2021F09092E800B12CEBCF80917B
:1006D000E80085FDE7CF9092E800BB24B394209713
:1006E00009F3F3CF5D9884E6809302021016110699
:1006F0003CF081E090E0F6019383828310E000E01B
:10070000C801DF91CF911F910F91FF90EF90DF9083
:10071000CF90BF90AF909F908F900895CF93DF932D
:100720001F92CDB7DEB76983DC01ED91FC910280A9
:10073000F381E02D41E050E0BE016F5F7F4F0995EE
:100740000F90DF91CF91089583E08093E90080912D
:10075000F200882319F08AE38093E80008950E944C
:10076000260190E00895CF93DF931F92CDB7DEB7B7
:10077000FC018485958597FD08C02FEF3FEF3587F5
:1007800024870F90DF91CF910895CE0101960E94AA
:10079000FC00019719F4898190E0F3CF8FEF9FEF70
:1007A000F0CF0F931F93CF93DF931F92CDB7DEB798
:1007B0008C01FC018485958597FF0BC0CE010196C5
:1007C0000E94FC00019771F4898190E0F8019587FF
:1007D0008487F801848595850F90DF91CF911F91D3
:1007E0000F9108958FEF9FEFF1CFFC0184859585E0
:1007F00097FD0BC09FB7F89482E08093E900809149
:10080000F2009FBF90E0019608959FB7F89482E0B0
:100810008093E9008091F2009FBF90E008950895D1
:100820008EBD00000DB407FEFDCF8EB508950F9369
:100830001F93CF93DF93082F162F80E591E00E943E
:10084000F900C3EDD2E060E08E810E944B0182E0AE
:100850000E941004802F0E941004812F0E94100417
:1008600061E08E81DF91CF911F910F910C944B012C
:10087000FF920F931F93CF93DF93F82E062F142F21
:1008800080E591E00E94F900C3EDD2E060E08E8146
:100890000E944B0185E00E9410048F2D0E941004DD
:1008A000802F0E941004812F0E94100461E08E812D
:1008B000DF91CF911F910F91FF900C944B011F93EB
:1008C000CF93DF93182F80E591E00E94F900C3EDEC
:1008D000D2E060E08E810E944B0183E00E94100410
:1008E000812F0E94100480E00E941004182F61E004
:1008F0008E810E944B01812FDF91CF911F9108952E
:10090000CF93C82F482F60EE8FE00E9438048FE00D
:100910000E945F04982F907E81E09C1301C080E0CC
:10092000CF9108951F93CF93DF9380E591E00E94CC
:10093000F900C3EDD2E060E08E810E944B0180EAB5
:100940000E94100480E00E941004182F61E08E8144
:100950000E944B01812FDF91CF911F9108958F92BB
:100960009F92AF92BF92CF92DF92EF92FF920F933E
:100970001F93CF93DF9300D000D0CDB7DEB7B82E52
:100980008B016A01790160E08091D9020E944B01DC
:100990008B2D0E941004CE0101965C014E0195E062
:1009A000890E911C80E00E941004F50181935F0183
:1009B000E815F905B9F72A818981F8E08F9FC00110
:1009C0001124422F50E065E0559547956A95E1F76F
:1009D000840F951F092E000CAA0BBB0BF801808316
:1009E0009183A283B383F601108223FF3AC0F801FA
:1009F00080819181A281B38132E0880F991FAA1F63
:100A0000BB1F3A95D1F72370820F911DA11DB11D17
:100A100080839183A283B38380819181A281B381FA
:100A2000BA2FA92F982F88272B81820F911DA11DE6
:100A3000B11D80839183A283B38380819181A28140
:100A4000B381BA2FA92F982F88272C81820F911D4F
:100A5000A11DB11D80839183A283B38381E0F60140
:100A6000808380E00E941004982F9F7090936F0203
:100A700086FB882780F9F701808387E6E82E82E0ED
:100A8000F82E10E080916F02181750F4183041F0E2
:100A900080E00E941004F70181937F011F5FF2CF75
:100AA00061E08091D9020F900F900F900F90DF912D
:100AB000CF911F910F91FF90EF90DF90CF90BF905B
:100AC000AF909F908F900C944B0110921A0260E0AF
:100AD00082E00C944B0181E080931A0261E082E095
:100AE0000C944B01FC0101900020E9F73197AF0114
:100AF000481B590BBC0180E792E00C9409038F92CC
:100B00009F92AF92BF920F931F93CF93DF93CDB776
:100B1000DEB7A1970FB6F894DEBF0FBECDBF19A206
:100B2000423008F44AE08E010F5D1F4F842E912C55
:100B3000B12CA12CA50194010E947315E62FB901D7
:100B4000CA01EA30F4F4E05DD801EE938D01232B65
:100B5000242B252B79F790E080E0109719F0CD0138
:100B60000E947205A1960FB6F894DEBF0FBECDBFEE
:100B7000DF91CF911F910F91BF90AF909F908F9079
:100B80000895E95CE1CFBC01990F880B990B4AE00D
:100B90000C947F05682F70E090E080E04AE00C94B0
:100BA0007F05CF93DF9386E391E00E947205EC010D
:100BB00088E391E00E9472058C0F9D1FDF91CF9119
:100BC00008950C9472054F925F926F927F928F926C
:100BD0009F92AF92BF92CF92DF92EF92FF926B0102
:100BE0007C01AC019B010E944615882381F08BE3B8
:100BF00091E0FF90EF90DF90CF90BF90AF909F90EB
:100C00008F907F906F905F904F900C94720546018B
:100C10005701E894B7F82FEF3FEF4FE75FE7C501C3
:100C2000B4010E94461581110DC02FEF3FEF4FE731
:100C30005FE7C501B4010E94C21218161CF48FE3CD
:100C400091E0D7CF2FEF3FEF4FE75FE4C701B60149
:100C50000E94411518161CF483E491E0CACF2FEFCF
:100C60003FEF4FE75FECC701B6010E94C21287FD5C
:100C7000F3CF20E030E0A901C701B6010E94C21203
:100C8000B12CA12C87FF0AC06DE280E792E00E94A0
:100C90008E035C01F7FAF094F7F8F0942AE037ED50
:100CA00043EA5BE3C701B6010E9434142B013C0107
:100CB0000E9412156B017C010E94C7129B01AC01BE
:100CC000C301B2010E9433142B013C014AE0C70169
:100CD000B6010E947F057C01EA0CFB1C6EE280E7F6
:100CE00092E00E948E03E80EF91E20E030E040E220
:100CF00051E4C301B2010E9428132B013C010E9460
:100D000012154B01B12CA12C4AE0C501B4010E947F
:100D10007F05E80EF91EC501B4010E94C7129B01B0
:100D2000AC01C301B2010E94331420E030E040E284
:100D300051E40E9428130E94121590E080E04AE0DE
:100D40000E947F058E0D9F1DFF90EF90DF90CF904A
:100D5000BF90AF909F908F907F906F905F904F90DB
:100D60000895CF93DF93EC01198218821B821A82B7
:100D70001D821C8261E070E090E080E00E94C0165D
:100D80000097A1F0998388831B821A822C813D8170
:100D9000232B11F4FC0110821D821C826AE371E096
:100DA00088819981DF91CF910C94861788819981F0
:100DB000009711F00E943716198218821D821C823A
:100DC0001B821A82DF91CF910895FC01808191816D
:100DD000009711F00C94371608950F931F93CF933B
:100DE000DF938C01EB010E94E6138883C801019612
:100DF0000E94E6138983CE01DF91CF911F910F915D
:100E00000895CF93DF93EB010E94E6138883CE0110
:100E1000DF91CF910895CF93DF93EB010E94E6130A
:100E20008883CE01DF91CF9108951F93CF93DF93F5
:100E3000EC01162F0E94E613181739F0612FCE012E
:100E4000DF91CF911F910C94EE13DF91CF911F9101
:100E500008951F920F920FB60F9211242F933F9374
:100E60008F939F93AF93BF938091510290915202C1
:100E7000A0915302B09154023091500223E0230F0D
:100E80002D3758F50196A11DB11D20935002809376
:100E9000510290935202A0935302B0935402809156
:100EA000550290915602A0915702B09158020196B6
:100EB000A11DB11D8093550290935602A093570235
:100EC000B0935802BF91AF919F918F913F912F9115
:100ED0000F900FBE0F901F90189526E8230F0296D3
:100EE000A11DB11DD2CF1F920F920FB60F921124E8
:100EF0008F939F938091E1009091E100937F909375
:100F0000E10083FF0FC01092E90091E09093EB00A5
:100F10001092EC0092E39093ED001092660298E03C
:100F20009093F00082FF22C093E09093E9009091AB
:100F3000F200992319F09AE39093E800909102024D
:100F4000992341F0909102029150909302029111E5
:100F500001C05D9A90916502992341F090916502DC
:100F6000915090936502911101C0289A84FF18C096
:100F70008091E2008E7E81608093E2008091E100AA
:100F80008F7E8093E100809103028E7E806180934A
:100F900003029F918F910F900FBE0F901F90189595
:100FA00080FFF7CF8091E2008E7E80618093E20027
:100FB0008091E1008E7E8093E100809103028E7E1D
:100FC0008160E5CF1F920F920FB60F921124CF923E
:100FD000DF92EF92FF920F931F932F933F934F93C4
:100FE0005F936F937F938F939F93AF93BF93EF9391
:100FF000FF93CF93DF93CDB7DEB76C97DEBFCDBF46
:101000001092E9008091E80083FF25C068E0CE01DE
:1010100045960E94FC0282EF8093E8008D8987FF4D
:1010200039C09091E80090FFFCCF982F907609F09E
:1010300034C19E894F89588D2F89F88C911131C008
:10104000803861F5809104028093F1001092F100E4
:101050008EEF8093E8006C960FB6F894DEBF0FBE5B
:10106000CDBFDF91CF91FF91EF91BF91AF919F9154
:101070008F917F916F915F914F913F912F911F9130
:101080000F91FF90EF90DF90CF900F900FBE0F90D9
:101090001F9018959EEF9093E800C7CF1092F10033
:1010A000D5CF913059F48111D3CF4130510581F61C
:1010B000809104028D7F80930402CACF933049F45B
:1010C0008111C6CF4130510519F68091040282602A
:1010D000F2CF953041F48091E80080FFFCCF20688A
:1010E0002093E300B5CF963009F0A9C00B8D1C8D7D
:1010F00022E01092E900109200021092FF01F21219
:101100002EC01092FE011092FD010E94CB021F82A0
:1011100099E09983FA8291E09E8390EA98879AEF0A
:1011200099872091FF0130910002275F3F4F3C8358
:101130002B838D831092E900109200021092FF0120
:101140001093FE010093FD0149E050E0BE016F5F86
:101150007F4F80E00E94A5020E94CB0279CF1093BE
:10116000FE010093FD010E943701DC0112960D91F2
:101170001C910115110509F451C1D801ED91FC91A3
:101180000480F581E02DBE016B5E7F4FC80109959B
:10119000009709F03EC1F80100851185EACFF3E020
:1011A000FF120EC08F89882309F440C0823061F499
:1011B00040E860E180E191E00E947202811148CF35
:1011C00081E28093EB0047CF813029F440E86BE067
:1011D00084E091E0F1CF833099F70E943701DC0180
:1011E0001296ED90FC908E010F5F1F4F6801E11485
:1011F000F10479F0D701ED91FC910680F781E02DA3
:10120000B801C7010995080F111DF701E084F184A9
:10121000EECFD8011C92F60101900020E9F731973A
:10122000BF016C197D0940E0C601C6CF6EEE70E0CB
:10123000FB01449150E080E80E94A50209CF97305D
:1012400009F4BECF983021F481E08093F10000CF03
:10125000993009F0FDCE837009F0B2CFE5E1F1E0FD
:1012600081E031E096E32191222371F08093E9003F
:101270003093EB00DF0111972C912093EC009093B9
:10128000ED008F5F873079F78EE78093EA00109248
:10129000EA008F8980936602DBCE8B8D9C8D109245
:1012A000E900109200021092FF019093FE018093DA
:1012B000FD01898D811192C08E899D89913A49F4F1
:1012C000813209F07DCF47E050E064E071E080E0DA
:1012D000B3CF913209F074CF833269F48F89988D3E
:1012E000B0E0A0E08093000190930101A09302017F
:1012F000B0930301ADCE803269F48091E80082FFA3
:10130000FCCF67E084E091E00E94FC028BEF8093C9
:10131000E8009ECE823209F09BCE8F8980930B012C
:10132000EEEFFFE7859194918B3F9C4D51F1E0E00A
:10133000F8E08091040190910501A0910601B0911F
:101340000701803B9440A105B105F1F480910B01A8
:1013500080FD1AC0EE3F8AE0F80789F587E797E736
:1013600091838083809160008093010288E19BE0FB
:101370000FB6F894A895809360000FBE909360001C
:1013800067CEEEEFFAE0D5CF80819181873797471E
:1013900009F05ECEA895809160008861809360001E
:1013A0008091010280936000EE3F2AE0F20789F00D
:1013B0008091FE0A9091FF0A9183808349CE8081BB
:1013C00091818737980751F29093FF0A8093FE0A24
:1013D000C5CF1092FF0A1092FE0A3ACE0E94370142
:1013E000DC0112960D911C910115110509F4E8CE4E
:1013F000D801ED91FC910190F081E02DBE016B5E72
:101400007F4FC8010995811123CEF8010085118510
:10141000EBCF181619060CF41BCED2CEF1E0FF125A
:10142000BECE62EF70E004CF1F920F920FB60F9204
:1014300011248F939F938091FC018F5F833680F4FA
:101440008093FC019091FC0180914202981758F41E
:101450002D9A9F918F910F900FBE0F901F9018950E
:101460001092FC01EFCF2D98F4CF1F920F920FB680
:101470000F9211242F933F935F936F937F938F93DA
:101480009F93AF93BF932091FA013091FB012F5F9F
:101490003F4F3093FB012093FA0181E08093480293
:1014A00020FF80934702C90165E070E00E944B1560
:1014B000892B19F481E080934602C9016AE070E04B
:1014C0000E944B15892B19F481E080934502C901D4
:1014D00062E370E00E944B15892B19F481E0809340
:1014E0004402C90164E670E00E944B15892B19F48F
:1014F00081E0809343022135334C20F01092FB01B0
:101500001092FA01BF91AF919F918F917F916F914E
:101510005F913F912F910F900FBE0F901F901895E4
:10152000E0E7F2E01382128288EE93E0A0E0B0E000
:1015300084839583A683B78388E291E09183808337
:101540008FEF9FEF95878487E3EDF2E0118680ECC3
:1015500092E0908787838DEC92E00E94B10687EC41
:1015600092E00E94B10681EC92E00C94B106CF9318
:10157000DF9300D000D0CDB7DEB7789484B5826019
:1015800084BD84B5816084BD85B5826085BD85B527
:10159000816085BD80916E00816080936E001092A5
:1015A0008100809181008260809381008091810020
:1015B00081608093810080918000816080938000B1
:1015C0008091910082608093910080919100816070
:1015D0008093910080919000816080939000809131
:1015E000C10084608093C1008091C10082608093BB
:1015F000C1008091C10081608093C1008091C300CF
:1016000081608093C3008091C00082608093C0009D
:101610008091C20081608093C20080917A008460D2
:1016200080937A0080917A00826080937A00809122
:101630007A00816080937A0080917A00806880933C
:101640007A001092660210920402109203028091B6
:10165000D70081608093D70080EA8093D80089B555
:10166000806189BD89B5826089BD09B400FEFDCF66
:1016700061E070E080E090E00E9412028091D8006A
:101680008F7C80618093D8008091E000807F809380
:10169000E0008091E1008E7E8093E1008DE08093F8
:1016A000E200559A209A60E082E10E94BC0161E06C
:1016B0008AE00E94BC01609137028AE00E944B01DF
:1016C00061E086E00E94BC016091360286E00E94E3
:1016D0004B0161E088E00E94BC016091350288E026
:1016E0000E944B0160E084E10E94BC0161E083E163
:1016F0000E94BC016091300283E10E944B0161E0D5
:101700008CE00E94BC0160912F028CE00E944B0192
:1017100060E085E10E94BC0161E086E10E94BC01BD
:1017200060912A0286E10E944B0161E084E00E9400
:10173000BC016091290284E00E944B0161E089E0D4
:101740000E94BC0160E089E00E944B0161E08DE0F5
:101750000E94BC0160E08DE00E944B0161E085E0E9
:101760000E94BC0160E085E00E944B0161E083E0E3
:101770000E94BC0160913A0283E00E944B0161E04B
:1017800082E00E94BC0160911A0282E00E944B013B
:1017900061E080E00E94BC0161E087E10E94BC0141
:1017A0006091190211E0612787E10E944B01F894D2
:1017B00014BC15BC16BC8BE987BD84B5826084BDA2
:1017C00085B5856085BD80916E00826080936E00D6
:1017D000789467E372E085E690E00E940B0766E389
:1017E00072E086E690E00E940B0765E372E087E610
:1017F00090E00E940B0764E372E088E690E00E94AC
:101800000B0763E372E089E690E00E94010762E360
:1018100072E08AE690E00E940B076AE072E084E6DC
:1018200090E00E94010760E372E08FE690E00E9482
:101830000B076FE272E080E790E00E940B076EE218
:1018400072E081E790E00E940B076DE272E082E7B0
:1018500090E00E9401076CE272E083E790E00E9452
:101860000B0769E072E08EE690E00E9401076AE2F1
:1018700072E089E790E00E940B0769E272E08AE774
:1018800090E00E940B0768E272E08BE790E00E9414
:101890000B0767E272E08CE790E00E94010766E2C6
:1018A00072E08DE790E00E940B0768E072E088E745
:1018B00090E00E94010767E072E082E890E00E94F9
:1018C000010764E272E083E890E00E94ED0663E2C3
:1018D00072E085E890E00E940B0766E072E08CE819
:1018E00090E00E94010760E272E08DE890E00E94C3
:1018F000ED066FE172E08FE890E00E940B0765E073
:1019000072E086E990E00E9401076CE172E087E9ED
:1019100090E00E94ED066BE172E089E990E00E94A0
:101920000B0769E172E080EA90E00E940B076CE02F
:1019300071E081EA90E00E94ED061092370260E0CB
:101940008AE00E944B016091370285E690E00E9498
:1019500015071092360260E086E00E944B0160910C
:10196000360286E690E00E9415071092350260E08C
:1019700088E00E944B016091350287E690E00E946A
:101980001507109238021092300260E083E10E9445
:101990004B01609130028FE690E00E941507109293
:1019A0002F0260E08CE00E944B0160912F0280E7E3
:1019B00090E00E9415071092310210922A0260E016
:1019C00086E10E944B0160912A0289E790E00E9423
:1019D00015071092290260E084E00E944B0160919B
:1019E00029028AE790E00E94150710922B02F894D2
:1019F0001092800010928100109285001092840055
:101A00008FE396E090938900809388008091810015
:101A10008860809381008091810081608093810043
:101A200080916F00826080936F00789484E690E0EC
:101A300090932502809324029093210280932002A8
:101A400090931D0280931C02109341021092220277
:101A500010921E0288EE93E090930D0180930C018A
:101A60001EE4A12E11E0B12E0DE6E02E01E0F02ED5
:101A7000DFB6F89480910B02811125C0F5018491A5
:101A8000F7019491E82FF0E0EE0FFF1FEF5DFE4F9E
:101A9000A591B4918C91982321F461E081E10E9499
:101AA0004B0161E081E10E94BC018CB580618CBD7D
:101AB0008CB580648CBD61E08FE00E94BC0161E068
:101AC00080E10E94BC0180910B028F5F80930B022A
:101AD000DFBE80E591E00E94F90060E08091D902CC
:101AE0000E944B0180EC0E94100461E08091D902B9
:101AF0000E944B016AE070E080E090E00E941202D8
:101B000080E80E948004882369F06AE070E080E049
:101B100090E00E94120264E670E080E090E00E9493
:101B20001202A6CF6AE070E080E090E00E9412020C
:101B300060E08AE20E94170460ED89E20E941704C7
:101B400062E888E20E9417046AE070E080E090E0BA
:101B50000E94120210E360E0812F0E94170460E0EF
:101B600080E1810F0E94170460E080E2810F0E94F3
:101B700017041F5F1E3379F760E080E60E941704A8
:101B800060E080E70E94170463E08BE20E94170484
:101B900044E064E680E60E94380440E060E680E7C6
:101BA0000E94380480E00E9480048111AECF6AE078
:101BB00070E080E090E00E941202109267021092A2
:101BC00068021092690210926A0210926B021092DF
:101BD0006C0210926D0210926E0281E080931902E5
:101BE00060E087E10E944B016091190280EA90E079
:101BF0000E9415078FEF9FEF90937D0280937C02E8
:101C00001E01F5E02F0E311CF8EF4F2EFAE25F2E89
:101C1000A5E28A2EA6E09A2EA12CB12CE8E16E2E28
:101C2000E2E07E2E0E949204837009F08CC28091C3
:101C30004A0290914B02019690934B0280934A0284
:101C400080914A0290914B0221E0813137E2930763
:101C500008F420E02093490281369A4E20F05092F9
:101C60004B0240924A0280914802882349F08091B9
:101C70001802882309F48EC31092180210924802A9
:101C80008091470281111092470280914602882379
:101C900009F412C280913902811136C087E491E0C3
:101CA0000E94E105809138020E94CA050E94D10578
:101CB0008BE491E00E94E1058091370290E00E9460
:101CC000C3050E94D1058FE491E00E94E105809157
:101CD000360290E00E94C3050E94D10583E591E0A1
:101CE0000E94E1058091350290E00E94C3050E94A8
:101CF000D10587E591E00E94E10560E070E0CB014D
:101D00000E94E3050E94D10580913902813051F58E
:101D10008BE591E00E94E10590E080E00E94C30520
:101D20000E94D1058FE591E00E94E1058091340287
:101D300090E00E94C3050E94D10583E691E00E94D5
:101D4000E105809133020E94CA050E94D10587E611
:101D500091E00E94E1058091320290E00E94C3056B
:101D60000E94D105809139028230A9F58BE691E07D
:101D70000E94E105809131020E94CA050E94D105AE
:101D80008FE691E00E94E1058091300290E00E9490
:101D9000C3050E94D10583E791E00E94E10580918F
:101DA0002F0290E00E94C3050E94D10587E791E0D1
:101DB0000E94E10560E070E0CB010E94E3050E9413
:101DC000D1058BE791E00E94E10590E080E00E9460
:101DD000C3050E94D10580913902833001F58FE758
:101DE00091E00E94E10580912E0290E00E94C305DF
:101DF0000E94D10583E891E00E94E10580912D02C7
:101E00000E94CA050E94D10587E891E00E94E10581
:101E100080912C0290E00E94C3050E94D105809120
:101E200039028430A9F58BE891E00E94E1058091A8
:101E30002B020E94CA050E94D1058FE891E00E9402
:101E4000E10580912A0290E00E94C3050E94D1051D
:101E500083E991E00E94E1058091290290E00E94CF
:101E6000C3050E94D10587E991E00E94E10560E089
:101E700070E0CB010E94E3050E94D1058BE991E05F
:101E80000E94E10590E080E00E94C3050E94D10518
:101E900080913902853001F58FE991E00E94E105DA
:101EA0008091280290E00E94C3050E94D10583EA38
:101EB00091E00E94E105809127020E94CA050E94DC
:101EC000D10587EA91E00E94E1058091260290E029
:101ED0000E94C3050E94D105809139028630C1F568
:101EE0008BEA91E00E94E105809141020E94CA05BF
:101EF0000E94D1058FEA91E00E94E10560912402E1
:101F00007091250290E080E04AE00E947F050E94E7
:101F1000D10583EB91E00E94E105809142020E948D
:101F2000CA050E94D10587EB91E00E94E10590E08F
:101F300080E00E94C3050E94D1058BEB91E00E94D6
:101F4000E1058091230290E00E94C3050E94D10523
:101F5000809139028730B9F58FEB91E00E94E1055D
:101F6000809122020E94CA050E94D10583EC91E073
:101F70000E94E105609120027091210290E080E0D2
:101F80004AE00E947F050E94D10587EC91E00E9403
:101F9000E10580E00E94CA050E94D1058BEC91E02A
:101FA0000E94E10590E080E00E94C3050E94D105F7
:101FB0008FEC91E00E94E10580911F0290E00E9469
:101FC000C3050E94D105809139028830B9F583EDAF
:101FD00091E00E94E10580911E020E94CA050E94C4
:101FE000D10587ED91E00E94E10560911C0270919E
:101FF0001D0290E080E04AE00E947F050E94D1052A
:102000008BED91E00E94E10580E00E94CA050E94EC
:10201000D1058FED91E00E94E10590E080E00E9403
:10202000C3050E94D10583EE91E00E94E1058091F5
:102030001B0290E00E94C3050E94D10580913902E5
:10204000893081F587EE91E00E94E10580913A02A6
:1020500090E00E94C3050E94D1058BEE91E00E94A2
:10206000E10580911A0290E00E94C3050E94D1050B
:102070008FEE91E00E94E1058091190290E00E94AC
:10208000C3050E94D10583EF91E00E94E1056091B4
:102090000C0170910D0190E080E04AE00E947F0504
:1020A0000E94D105809139028F5F8A3008F05BC2AF
:1020B000809339021092460280914502811110925C
:1020C00045028091440281111092440280914302A2
:1020D000882389F187EF91E00E94E1050E94D105F4
:1020E00080914902882361F01092420210924102CD
:1020F0000E94650510923A0260E083E00E944B0165
:1021000020E030E04AEA52E460913D0270913E02E4
:1021100080913F02909140020E94C21218164CF02A
:1021200080913B0290913C02019690933C028093F7
:102130003B021092430280E090E0892B09F472CDBB
:102140000E9400006BCD0E949204982F9B7A292F49
:1021500030E095959595959590718370892BA9019F
:10216000559547954470842B35952795359527953A
:102170002870822B80FFDCC028ED32E043ED52E076
:1021800064ED72E080E90E94AF048091D4029091E6
:10219000D502A091D602B091D70280934C029093C1
:1021A0004D02A0934E02B0934F0286319640A10596
:1021B000B10509F0B8C0909167029923E1F0209130
:1021C00068022223C1F0892F90E0982F8827820F80
:1021D000911D6AE070E00E945F15072E000C880BCD
:1021E000990B0E94C91260933D0270933E02809346
:1021F0003F029093400260916902862F90E0982FF1
:10220000882760916A02680F792F711D072E000CD4
:10221000880B990B0E94C9122AE037ED43EA52E479
:102220000E94A0146B017C0120E030E048EC52E4F5
:102230000E94C21218160CF488C0C0920C02D092F0
:102240000D02E0920E02F0920F02C0903D02D0907B
:102250003E02E0903F02F090400220E030E04CE887
:1022600052E4C701B6010E94C2121816B4F0809160
:102270003B0290913C028A3091050CF06BC060915A
:102280000C0270910D0280910E0290910F020E943B
:102290001215609342020E946B0520E030E04EE888
:1022A00052E4C701B6010E94411587FD20C020E01D
:1022B00030E048EA52E4C701B6010E94C212181683
:1022C000B4F080913B0290913C028A3091050CF071
:1022D00051C060910C0270910D0280910E0290919C
:1022E0000F020E941215609342020E946B0520E0CB
:1022F00030E04AEA52E4C701B6010E94411587FD69
:1023000012C060910C0270910D0280910E029091AA
:102310000F020E941215609342020E946B051092F8
:102320003C0210923B0210924B0210924A0288CC5F
:1023300081FF08C028ED32E043ED52E064ED72E029
:1023400084E921CF10926F0220CF109242020E94A6
:1023500065057BCF8A30910529F4109242020E94D4
:1023600065059BCF88970CF498CF10923C02109291
:102370003B0293CF8A30910529F4109242020E94C9
:102380006505B5CF44970CF4B2CF10923C02109281
:102390003B02ADCF10914202112309F46DC0809130
:1023A000100281608093100284E680931102609194
:1023B0003D0270913E0280913F02909140020E9446
:1023C0001215609312021093130280913B028093C6
:1023D00014028FEF809315028093160280931702E8
:1023E0008092D4029092D502A092D602B092D702E7
:1023F0001092D3021092D802F12CE12C0E94920488
:102400008475843509F43DC09091DC0263E070E08E
:10241000691B710990E0292F30E0261737078CF5EA
:102420004FEF933020F4F901EF5DFE4F40814823D8
:1024300031F510E5933020F4F901E25EFE4F108192
:102440001F5F60E0933020F4255E3E4FF90160810C
:1024500040E08CE20E94380480E0FFEFEF1AFF0AB0
:10246000823091F422E3E216F10409F405CC83E210
:1024700090E00197F1F7C2CF1092100295CF9F5FC5
:10248000CACF10E082E0E9CF32E3E316F10409F4A9
:10249000F3CB02E4113439F004E4113521F000E407
:1024A000113309F000E084EC898380EA8A831C827E
:1024B0001B8280E591E00E94F90060E08091D902E2
:1024C0000E944B01802F0E941004CE0101967C01D6
:1024D000F70181917F010E941004E214F304C1F717
:1024E00088E00E94100480E1E82E82E0F82EF701D7
:1024F00081917F010E9410046E147F04C1F761E096
:102500008091D9020E944B0180E591E00E94F90080
:1025100060E08091D9020E944B0182E8113439F0C9
:1025200084E8113521F081E8113309F080E00E9440
:10253000100461E08091D9020E944B01F12CE12C42
:102540001150FFEFEF1AFF0A812F0E945F0483FFF3
:1025500093CB22E3E216F10409F48ECB83E290E000
:102560000197F1F7EECF10923902A4CD81EC92E001
:102570000E94E50687EC92E00E94E5068DEC92E071
:102580000C94E5060E94041308F481E00895E89491
:1025900009C097FB3EF490958095709561957F4FAB
:1025A0008F4F9F4F9923A9F0F92F96E9BB27939559
:1025B000F695879577956795B795F111F8CFFAF469
:1025C000BB0F11F460FF1BC06F5F7F4F8F4F9F4F9A
:1025D00016C0882311F096E911C0772321F09EE8F8
:1025E000872F762F05C0662371F096E8862F70E05E
:1025F00060E02AF09A95660F771F881FDAF7880F38
:102600009695879597F90895990F0008550FAA0B8D
:10261000E0E8FEEF16161706E807F907C0F01216F5
:102620001306E407F50798F0621B730B840B950BF8
:1026300039F40A2661F0232B242B252B21F408954D
:102640000A2609F4A140A6958FEF811D811D0895EA
:102650000E943B130C94AC130E949E1338F00E940E
:10266000A51320F0952311F00C9495130C949B1353
:1026700011240C94E0130E94BD1370F3959FC1F3D5
:10268000950F50E0551F629FF001729FBB27F00D20
:10269000B11D639FAA27F00DB11DAA1F649F662775
:1026A000B00DA11D661F829F2227B00DA11D621FC4
:1026B000739FB00DA11D621F839FA00D611D221F7E
:1026C000749F3327A00D611D231F849F600D211D62
:1026D000822F762F6A2F11249F5750409AF0F1F0E5
:1026E00088234AF0EE0FFF1FBB1F661F771F881F4E
:1026F00091505040A9F79E3F510580F00C949513DE
:102700000C94E0135F3FE4F3983ED4F386957795FD
:102710006795B795F795E7959F5FC1F7FE2B880FF3
:10272000911D9695879597F9089597F99F6780E889
:1027300070E060E008959FEF80EC089500240A9413
:102740001616170618060906089500240A9412168C
:102750001306140605060895092E0394000C11F4BF
:10276000882352F0BB0F40F4BF2B11F460FF04C06C
:102770006F5F7F4F8F4F9F4F089557FD9058440FC5
:10278000551F59F05F3F71F04795880F97FB991FD0
:1027900061F09F3F79F0879508951216130614068D
:1027A000551FF2CF4695F1DF08C01616170618061A
:1027B000991FF1CF86957105610508940895E894F5
:1027C000BB2766277727CB0197F90895F999FECFA4
:1027D00092BD81BDF89A992780B50895262FF99961
:1027E000FECF1FBA92BD81BD20BD0FB6F894FA9AF4
:1027F000F99A0FBE019608952F923F924F925F92E1
:102800006F927F928F929F92AF92BF92CF92DF9200
:10281000EF92FF920F931F93CF93DF93CDB7DEB765
:10282000CA1BDB0B0FB6F894DEBF0FBECDBF0994F9
:102830002A88398848885F846E847D848C849B8450
:10284000AA84B984C884DF80EE80FD800C811B815E
:10285000AA81B981CE0FD11D0FB6F894DEBF0FBE8D
:10286000CDBFED0108955058BB27AA270E944B14F5
:102870000C94AC130E949E1338F00E94A51320F014
:1028800039F49F3F19F426F40C949B130EF4E09551
:10289000E7FB0C949513E92F0E94BD1358F3BA1768
:1028A000620773078407950720F079F4A6F50C9466
:1028B000DF130EF4E0950B2EBA2FA02D0B01B901FA
:1028C00090010C01CA01A0011124FF27591B99F0A6
:1028D000593F50F4503E68F11A16F040A22F232FB2
:1028E000342F4427585FF3CF469537952795A79502
:1028F000F0405395C9F77EF41F16BA0B620B730BA9
:10290000840BBAF09150A1F0FF0FBB1F661F771F19
:10291000881FC2F70EC0BA0F621F731F841F48F4CE
:10292000879577956795B795F7959E3F08F0B0CF57
:102930009395880F08F09927EE0F9795879508953E
:102940000E94B4140C94AC130E94A51358F00E947A
:102950009E1340F029F45F3F29F00C949513511118
:102960000C94E0130C949B130E94BD1368F39923FD
:10297000B1F3552391F3951B550BBB27AA2762177B
:102980007307840738F09F5F5F4F220F331F441F88
:10299000AA1FA9F335D00E2E3AF0E0E832D09150BC
:1029A0005040E695001CCAF72BD0FE2F29D0660FA9
:1029B000771F881FBB1F261737074807AB07B0E8EC
:1029C00009F0BB0B802DBF01FF2793585F4F3AF0F2
:1029D0009E3F510578F00C9495130C94E0135F3FE3
:1029E000E4F3983ED4F3869577956795B795F79578
:1029F0009F5FC9F7880F911D9695879597F9089560
:102A0000E1E0660F771F881FBB1F621773078407FB
:102A1000BA0720F0621B730B840BBA0BEE1F88F70A
:102A2000E09508950E94C51388F09F5798F0B92F3C
:102A30009927B751B0F0E1F0660F771F881F991FF3
:102A40001AF0BA95C9F714C0B13091F00E94DF13A3
:102A5000B1E008950C94DF13672F782F8827B85FB3
:102A600039F0B93FCCF3869577956795B395D9F74B
:102A70003EF490958095709561957F4F8F4F9F4F55
:102A800008950E94041308F48FEF08950E94041320
:102A9000880B990B0895AA1BBB1B51E107C0AA1F05
:102AA000BB1FA617B70710F0A61BB70B881F991FEF
:102AB0005A95A9F780959095BC01CD01089597FB93
:102AC000072E16F4009407D077FD09D00E944B150D
:102AD00007FC05D03EF4909581959F4F0895709521
:102AE00061957F4F0895A1E21A2EAA1BBB1BFD0121
:102AF0000DC0AA1FBB1FEE1FFF1FA217B307E407DD
:102B0000F50720F0A21BB30BE40BF50B661F771F34
:102B1000881F991F1A9469F7609570958095909514
:102B20009B01AC01BD01CF010895EE0FFF1F059081
:102B3000F491E02D09940F931F93CF93DF9382308C
:102B4000910510F482E090E0E091DF02F091E00264
:102B500030E020E0B0E0A0E0309799F42115310595
:102B600009F44AC0281B390B24303105D8F58A8175
:102B70009B816115710589F1FB0193838283FE01BD
:102B800011C0408151810281138148175907E0F03B
:102B90004817590799F4109761F012960C93129701
:102BA00013961C933296CF01DF91CF911F910F9115
:102BB00008950093DF021093E002F4CF2115310550
:102BC00051F04217530738F0A901DB019A01BD010A
:102BD000DF01F801C1CFEF01F9CF9093E0028093BC
:102BE000DF02CDCFFE01E20FF31F819391932250BC
:102BF000310939832883D7CF2091DD023091DE025D
:102C0000232B41F420911001309111013093DE0209
:102C10002093DD0220910E0130910F012115310525
:102C200041F42DB73EB74091120150911301241B7E
:102C3000350BE091DD02F091DE02E217F307A0F41C
:102C40002E1B3F0B2817390778F0AC014E5F5F4F02
:102C50002417350748F04E0F5F1F5093DE02409354
:102C6000DD02819391939FCFF0E0E0E09CCFCF9382
:102C7000DF930097E9F0FC01329713821282A09152
:102C8000DF02B091E002ED0130E020E01097A1F406
:102C900020813181820F931F2091DD023091DE026D
:102CA0002817390709F061C0F093DE02E093DD02D6
:102CB000DF91CF910895EA01CE17DF07E8F54A8149
:102CC0005B819E0141155105B1F7E901FB83EA8360
:102CD00049915991C40FD51FEC17FD0761F480810C
:102CE00091810296840F951FE901998388838281DF
:102CF00093819B838A83F0E0E0E012968D919C9112
:102D000013970097B9F52D913C911197CD0102963B
:102D1000820F931F2091DD023091DE0228173907C0
:102D200039F6309751F51092E0021092DF02B0931D
:102D3000DE02A093DD02BCCFD383C28340815181E8
:102D4000840F951FC817D90761F44E5F5F4F8881C4
:102D50009981480F591F518340838A819B819383B6
:102D600082832115310509F0B0CFF093E002E093A2
:102D7000DF029ECFFD01DC01C0CF13821282D7CFCC
:102D8000B0E0A0E0E6ECF6E10C94FE138C010097B5
:102D900051F4CB010E949B158C01C801CDB7DEB761
:102DA000E0E10C941A14FC01E60FF71F9C0122507D
:102DB0003109E217F30708F49DC0D901CD91DC91E8
:102DC0001197C617D70798F0C530D10530F3CE015B
:102DD00004978617970708F3C61BD70B2297C19352
:102DE000D1936D937C93CF010E943716D6CF5B01B0
:102DF000AC1ABD0A4C018C0E9D1EA091DF02B09151
:102E0000E002512C412CF12CE12C109731F58091EE
:102E1000DD029091DE028815990509F05CC0461626
:102E2000570608F058C080910E0190910F0100974D
:102E300041F48DB79EB74091120150911301841B4C
:102E4000950BE817F90708F055C0F093DE02E09300
:102E5000DD02F90171836083A0CF8D919C91119760
:102E600012966C90129713967C901397A815B9053B
:102E700059F56C0142E0C40ED11CCA14DB0420F1E8
:102E8000AC014A195B09DA011296159780F062824B
:102E9000738251834083D9016D937C93E114F104D3
:102EA00071F0D7011396FC93EE93129776CF22968A
:102EB0008C0F9D1FF90191838083F301EFCFF09375
:102EC000E002E093DF0269CF4816590608F42C01AE
:102ED0007D01D3019ACFCB010E949B157C01009705
:102EE00049F0AE01B8010E947D17C8010E94371653
:102EF000870153CF10E000E050CFFB01DC0102C09E
:102F000001900D9241505040D8F70895FB01DC012B
:102F100001900D920020E1F7089510E0CEECD0E092
:102F200004C0FE010E9495152196CF3CD107C9F738
:042F3000F894FFCF43
:102F3400FFFFFFFF00E1000000000000E8030000C5
:102F4400E102800000C180810000000408103040CC
:102F540050041040000000008E030903AF03A403D3
:102F6400F503B303D1033B000D0A006E616E0069E3
:102F74006E66006F76660031303A0031313A0031C6
:102F8400323A0031333A0031343A0031353A0031C3
:102F9400363A0031373A0031383A0032303A0032AA
:102FA400313A0032323A0032333A0032343A0032A3
:102FB400353A0032363A0032373A0033303A003389
:102FC400313A0033323A0033333A0033343A00337F
:102FD400353A0033363A0033373A0034303A003465
:102FE400313A0034323A0034333A0034343A00355A
:102FF400303A0035313A0035323A0035333A00354B
:10300400343A0036303A0036313A0036323A003635
:10301400333A0036343A0037303A0037313A003721
:0A302400323A0037333A002A2A003E
:00000001FF
